:1000000010000000005000004D4547320100000084
:10001000001800201D030000DD020000E1020000C6
:10002000E5020000E9020000ED020000000000000F
:10003000000000000000000000000000F1020000CD
:10004000F502000000000000F9020000FD020000BF
:10005000D50000009D01000021010000C10000004A
:10006000D90100000102000019030000190300007B
:100070001903000019030000190300001903000010
:100080001903000019030000190300001903000000
:1000900019030000190300001903000019030000F0
:1000A00019030000190300001903000019030000E0
:1000B00019030000190300001903000019030000D0
:1000C00019030000190300001903000019030000C0
:1000D000034A002313708022D20513707047C04674
:1000E0000000002000B50F4A002353708023DB0579
:1000F000D86B0D490140D963D86B0C490140D963D5
:10010000917800290CD05168DA6B0902120E090AA5
:1001100012060A43DA63D96B802252040A43DA6377
:1001200000BDC04600000020FFFFFFFEFFFFFFEF05
:1001300010B5A022D20594686407640FE3B2022BC5
:100140000AD0042B14D0012B16D1144B00211960B6
:10015000127B134B1A800FE0124B1B7A022B03D138
:100160000E4B1A6808321A600F4B1B68984703E061
:100170000A4B1A6808321A600A4B01211C72A0232C
:10018000DB051A680A431A60C046C046C046C0462E
:100190001A6810210A431A6010BDC04620000020D2
:1001A0001C000020000000201000002010B5A0233B
:1001B000DB051A6801210A431A601A6810210A43F4
:1001C0001A60064B1B689847054C237A022B02D114
:1001D000044B1B6898470023237210BD14000020B5
:1001E000000000200C000020064B00225A728023E1
:1001F000DB051968044A0A401A601968034A0A4074
:100200001A60704700000020FFFFF0FFFFFF0FFFA4
:100210007047C0467047064B01221A708023DB05E9
:100220000021597019680F2081430A431A607047F2
:1002300000000020064B01221A708023DB0519689C
:10024000044A0A40802149020A431A607047C046A6
:1002500009000020FFFFF0FF00B5064B72B61A78C8
:10026000002A04D0C046C04662B630BFF6E762B688
:1002700000BDC04609000020054B01221A708023F2
:10028000DB05D96B802252040A43DA637047C0460B
:100290000100002000B5054B72B61A78002A03D081
:1002A000C046C04662B6F7E762B600BD0000002057
:1002B00000B50B4B0B4A72B61978002902D11178A0
:1002C000002904D0C046C04662B630BFF3E762B62C
:1002D000054A1278002A01D001221A7000BDC046DA
:1002E00001000020000000200200002000B5FEE711
:1002F00000B5FEE700B5FEE700B5FEE700B5FEE796
:1003000000B5FEE700B5FEE700B5FEE700B5FEE785
:1003100000B5FEE700B5FEE700B5FEE700B5FEE775
:1003200000B5FEE700B5FEE700B5FEE708B5FF2320
:1003300000221B041A60BFF36F8F00F06DF808BD38
:10034000FFFFFFFFFFFFFFFFFFFFFFFFFFFFFFFFBD
:10035000FFFFFFFFFFFFFFFFFFFFFFFFFFFFFFFFAD
:10036000FFFFFFFFFFFFFFFFFFFFFFFFFFFFFFFF9D
:10037000FFFFFFFFFFFFFFFFFFFFFFFFFFFFFFFF8D
:10038000FFFFFFFFFFFFFFFFFFFFFFFFFFFFFFFF7D
:10039000FFFFFFFFFFFFFFFFFFFFFFFFFFFFFFFF6D
:1003A000FFFFFFFFFFFFFFFFFFFFFFFFFFFFFFFF5D
:1003B000FFFFFFFFFFFFFFFFFFFFFFFFFFFFFFFF4D
:1003C000FFFFFFFFFFFFFFFFFFFFFFFFFFFFFFFF3D
:1003D000FFFFFFFFFFFFFFFFFFFFFFFFFFFFFFFF2D
:1003E000FFFFFFFFFFFFFFFFFFFFFFFFFFFFFFFF1D
:1003F000FFFFFFFFFFFFFFFFFFFFFFFFFFFFFFFF0D
:10040000FFFFFFFFFFFFFFFFFFFFFFFFFFFFFF01FA
:100410004D314830434F3434F8B58023DB059968BB
:10042000802292000A439A6099688022D2000A438F
:100430009A609968802212010A439A6002F08AFD4C
:1004400000F034FD00F04CFD7F4BAA2218707F4B6A
:100450001A7003F0C1FA002003F0DEFD002002F064
:100460000FFB7B4B7B4F0833DB7F5A4253411022FB
:10047000D21A794B1A703B78002B1DD1774A012490
:1004800013703C7000F090FA754B201C9A785A70EB
:1004900003F0C2FD02F08AFC00F0DEFD8023DB05E4
:1004A000596B704A0A405A6300F0D6FA02F033FAE8
:1004B00000F0D2FD00F09AFD684B1B78002B1CD099
:1004C000694C2378002B18D0684B13201B68984781
:1004D00000F06AFA02F036FD02F004FC002000F0A1
:1004E00009FC00F0C3FA624A01231370614A1380C9
:1004F00002F03CFA2378002BFCD100F001FD564BB2
:100500001A781E7873B20F2B17D005DC002B39D068
:100510000D2B00D094E02AE0112B21D003DB132B0C
:1005200000D08DE08AE04D4B00221A7000F05EFB97
:10053000514B1B78002B00D082E0494B587802F0D9
:10054000EDFC434DE87B02F07FFA4C4C6060287C68
:1005500002F07AFA1123A060EB56EA7B5343E36082
:100560003E4B00221A70464B187800F0C3FB3B4B01
:1005700000241C7000F070FA02F012FD00F06CFA1A
:10058000354B1C70354B01221A7000F01DFAFFF735
:1005900073FEFFF740FE01203A49404203F0B2F8F3
:1005A000324C06202368984702F066FD02F076FD83
:1005B00000F0A8F823680720984703F0E7F8324BCB
:1005C0001B78002B1BD100F065FD2368082098479D
:1005D000FFF730FEFFF740FE00F0E6FD01F0ACFB58
:1005E00001F0F0FB236812209847284B1B78002B62
:1005F00001D101F0ABFD1D4B0D201B68984700F0A9
:10060000BBF8214B1B78002B0CD101F01DFD01F034
:1006100000FE164B0F201B6898471D4B1B68984720
:1006200002F066F880230122DB055A70FFF740FED6
:10063000184B0020185600F075FC01E000F00CFA91
:10064000154B1E7017E7C046EE040020EF04002093
:10065000120D0020F904002064080020FA04002094
:10066000000E0020FFC0FFFFF60400200807002056
:100670007308002058080020F3040020F000002038
:100680002A110020E8130020F0130020F0040020BD
:1006900018000020CA0400203100002008B501F035
:1006A0004FFD124B1B68984711490E230022013B56
:1006B000DBB2181C1430400008188280002BF6D1E1
:1006C0000C490A22013AD2B28B54002AFAD10A4BC1
:1006D0000A491B7802E0013BDBB2CA54002BFAD175
:1006E000034A1360064A136008BDC0461800002084
:1006F0005C0100201C110020CC0C0020A10C00206B
:100700000001002010B5144B1B78002B23D0134C94
:1007100000232370124B04201B6898472378114C48
:10072000002B03D1104B1B78002B13D00F4A012351
:1007300013702268022A03DCD21822600C4A07E0F8
:10074000FFF7ACFF0B4B0D221A700023064A236003
:10075000137000E0236010BD5E080020EF1300203E
:1007600008070020B0040020AD040020F013002092
:10077000A00C002064080020F7B57649002305226C
:10078000013AD2B2101C0E30C00008180424005FD9
:10079000002800D00123002AF2D16F4A6F49127855
:1007A00007E0013AD2B2101D4000405E002800D0A0
:1007B0000123002AF5D16A49002B04D10A6869484F
:1007C000824201D001320A60674900220A709342D6
:1007D00051D1624A1268002A4DD164480278041C43
:1007E000012A0AD162480578002D06D1614C0270B9
:1007F0002370614C0A70237015E0604B1B680E2B50
:1008000011DD2378012B0ED05D4A1368013313608C
:10081000042B08DD00231360574A1370544A1370E9
:10082000514B02221A70574B00221A70534B1A6018
:10083000554B1968914209DD01391960012900D031
:1008400086E01A60484B03221A7081E04F4A5049F3
:100850004A3212888A427BD04E490968914277DB3E
:100860004D4A3F48111C34310978006888426FDBDB
:100870003532127843E0444A00231360181C1A1CD6
:10088000191C344FD41974340025645F002C1DDD0D
:10089000424FD41974340025645F002C16DD2D4DB1
:1008A000DC195E197568676801957D1B01D42F1CE2
:1008B00001E0019DEF1BBDB26918F66BE56B89B2D3
:1008C000AC1B00D5741BA4B2201880B208320433CC
:1008D000282AD6D1264B1A782F4B002A19D02D4A18
:1008E0002F4912680A80198E264B8A4209DA1B7832
:1008F000002B2DD1214B1A680E2A29DC01321A60F7
:1009000026E001221A701D4A002313601C4A13605E
:100910001EE0194A1B8D1278002A0BD11C4A934203
:1009200003D01C4A12689A4204DA1E4B834201D358
:100930008B420DD20F4A002313700F4A0C491370DB
:1009400001220A700F490B70074B1A7001F0F8FB77
:10095000F7BDC046C8020020CC0C002018010020C2
:10096000D8040020FFFFFF7FCA04002032000020CF
:10097000ED040020CB040020EC040020E80400205B
:10098000E0040020E4040020DC0400202A11002000
:10099000FFFF0000E8130020120D00209C01002042
:1009A000441500206390000010B503F03FF8054C9B
:1009B00000202368984703F08FF8236801209847A8
:1009C00010BDC0460807002010B51C4B19781C4B01
:1009D0004AB21C78002C22D01A4B00241B78A34268
:1009E0001DD1194BA14207D018490978A14203D162
:1009F00017490968A14203D00021196001240EE0C3
:100A000014491868C968884201DA01301860022A5E
:100A100010D00D4B02241B688B4203DA0AE063B24C
:100A2000934207D00B4A63B29B00D05802F03CF8C7
:100A3000024B1C7002F02AF810BDC04628000020AE
:100A40005E080020F504002044000020FC04002083
:100A500018010020F000002008B5FFF7DCFB802320
:100A60000122DB055A70FFF715FC08BDF0B587B011
:100A70000024FFF7F1FF524D0C21E879514A50E074
:100A800014264E434F1C7D001323039604970595AF
:100A9000013BDBB2002C1DD0039E4B4FF5186D00BF
:100AA000EE5F049F5D1C2D01ED196D00575BAD5A83
:100AB0000741F71B0541002F01DB751B00E0AD1B53
:100AC000039E6D10F718414EBE5DB54200DA351C2D
:100AD0003E4EBD55049F5D1C2D01ED196D00565B0A
:100AE000039D0641ED18B6B20196374F6E0002968F
:100AF00000956D46BC46AF88029D6646AF53002CFC
:100B000003D1324D009E745509E0632C07D1059D39
:100B1000AF5A019D07417E1B2D4F029DEE53002BC6
:100B2000B6D10139C9B2FF29AAD1254A294BD179B9
:100B30001B78244A3BE0013B2748DBB2274EC05CD0
:100B4000F75C0390002C1CD0254E9D00AD59039EF0
:100B5000781C013600018446301C60440496400035
:100B6000165A805A0E41AE1B0841002E01DB281A8E
:100B700000E0401B1B4D4010EE5CB04200DA301C20
:100B8000E854039D013701353F017F197F00D05B99
:100B9000134E08419F00B851002C08D1114E6D0032
:100BA000F454AD5A5E000D41281A0F4D7053002BBE
:100BB000C1D10134E4B2642C00D05AE707B0F0BDD3
:100BC0002A110020000800408E110020080E00208D
:100BD000140F0020CC0C0020174D0000154D000014
:100BE00020070020FE0D002026110020F7B501F09F
:100BF000A5FE01F0C9FE0028FBD1384B1B78022B63
:100C000009D0374B374948331A7853425418E054C7
:100C100001339342FADD324E334F331C48331C7894
:100C200064420CE0BA7880231219D2B2DB051A7143
:100C3000FFF712FF2878201802F03CFD0134351C24
:100C400048352B789C42EDDD002624E02C782F1CC3
:100C50006442483F19E0244B9A7880231219D2B29B
:100C6000DB051A71FFF7F8FE2D7801A96519281C1C
:100C700002F048FD1B49019B4A5DFF2B00DDFF236D
:100C80009A4200DA1A1C4A5501343D1C48352B782B
:100C90009C42E0DD0136154A114D137848359E42DD
:100CA000D4DB01F038FE2C780122121B0D4B002101
:100CB0000F480BE05D781E786D0075199E78AD19B0
:100CC000A84201DBA8B2111C013201339442F1DCCD
:100CD000054B9A785118C9B25970F7BDF30400203A
:100CE0002A110020B6040020000E002071110020FF
:100CF000FFFF0000F0B58BB0822202900021614816
:100D0000D20003F027F8029D5F4B002D09D05F4A07
:100D10005B88157B1AB269B2914211DB5D1EEDB2A0
:100D20000EE09B785BB25B005B421E1C083601DA6A
:100D300008235B42DBB2022703930497002504E0FB
:100D40006B42DBB20126039304962C1C00265EE066
:100D500010226F46D15701F05DFFFFF77DFE4B4B30
:100D60000F27DF576AB20597DB79921B069309922A
:100D70000C2345E01422111C5943581C079008917C
:100D80000195029D013AD2B2002D0BD01620584396
:100D90003F4980184156059F0998C919091807311C
:100DA0000E292AD80799501C0001401814273949E8
:100DB00040005F43415A069D37482941411ABF18F8
:100DC0003048BF003858884217DC344F401AB842C8
:100DD00000DA381C14275F43BF187F00BC46304F31
:100DE000B84200DD381C2F4D67467853089FB8186D
:100DF000244F8500E9512C494454002AC1D1019D5A
:100E0000013BDBB2FF2BB5D1013CE4B201366946B0
:100E10000C22535660B298429ADA029D002D2AD0D5
:100E20001A4B2149DD7BDC7A131C20E00B269E4205
:100E3000BF417F421422039714205843013AD2B293
:100E4000162680185E43475CB618BC46104FF75D07
:100E50003E1C6644AE19F6B202974654122A04D8D4
:100E6000039F002F01D136194654002AE4D1013BDB
:100E7000DBB2FF2BDAD10020011C01F0CBFE0BB05E
:100E8000F0BDC04674080020100700202A11002081
:100E9000194D000000080040FFFF00000080FFFF28
:100EA000FF7F00008E110020080E002070B5802307
:100EB0002B250A4C5B006D42013BDAB2092106E0AA
:100EC00056B25000C2B2002E01DA6840C2B20139F7
:100ED0000029F5D1E254002BEED170BD00050020B1
:100EE00010B50020A0220549031CD2011C78013353
:100EF0006040085C9342F9D110BDC0460005002057
:100F000008B5064B1B68002B06D0054B1B78002B41
:100F100002D101F02BFDFEE708BDC0460C160020F3
:100F2000FB04002010B5041E27DD022C02DD032C7B
:100F300023D132E0FFF7B2FB2048022C04D1204934
:100F4000582202F0C9FE0BE01E49582202F0C4FEEE
:100F50001D4B1B78012B03D01C4B0B201B689847A3
:100F6000FFF722FD1A4B36331A781A4B1A701B788A
:100F7000102B22D101F0B6FE1FE0174B1A78002A81
:100F800005D0164A11680131116000221A70144B05
:100F90001A68132A04DD00221A6010220D4B0BE0A0
:100FA0000E4B1A683B2A08DD00221A600D4B012007
:100FB0001B6898470C4B01221A7010BD2A110020A3
:100FC000404C0000984C0000320000200807002030
:100FD000120D002064080020D4040020D00400205A
:100FE000CC04002064000020F704002010B5164B4C
:100FF00000221A60154B012252425A60144B154CC4
:10100000187E0138421E9041011C123121605A7E27
:101010004042013A531E9A41131C0B33636015235F
:1010200003402381524214231340962063814900D8
:10103000000102F0EFFDF0235B006361C8239B0019
:10104000E0602061A36110BDC80200200001002003
:10105000120D0020AC0C002010B50C490D2300220D
:10106000A024580064004252181940004252074818
:10107000013BF5D213230022591E06D3044C5B0119
:10108000C2521B191A800B1CF6E710BD0008004065
:101090001A08004000B50F4B0E215A5E0E4B191C6A
:1010A0003D3109781B7F4A435BB292119A4200DAC4
:1010B0001A1C0A4B1A608023DB05196B1205090301
:1010C000090B11431963186B110B054A02400A43BF
:1010D0001A6300BD8C0400202A110020100F00208C
:1010E000FF00F0FF30B52F4D039C2D78002D53D11C
:1010F000002A04D18C2252426243D21106E0012A16
:1011000006D1192252426243D211A21802601CE099
:10111000022A03D106226500624306E0092A07D1AC
:10112000A200E500A21A2D195200D211AA18EDE76B
:10113000151C65430A2A01D1192202E00B2A03D1AA
:101140008C226243D211AD180560002B03D1E4015B
:101150006442E41123E0012B03D1A3001B19DB112E
:101160000FE0022B01D1640019E0102B01D1240102
:1011700015E0112B07D1A200230152421B19141BA9
:10118000E4111C190BE01A1C6243122B02D1E4017A
:10119000E41112190A6003E062435C4302600C60D0
:1011A00030BDC046F2040020F0B5822291B000218B
:1011B0005200B94802F0CEFDB84C8E220021201C0E
:1011C000520002F0C7FD0E237F20FF21013BDBB25E
:1011D0001A1C38329200A21890711071D17151719D
:1011E000002BF3D1AE4AD382AE4B9A680A2A01DCB7
:1011F00001329A60DA68002A01DD013ADA601A6881
:10120000112A01DC01321A605A68002A01DD013A14
:101210005A60A44B00249D6816236B4305940A93DF
:1012200067E11C685CE1631C691C9F4A1B015B1839
:10123000995C9E4A4E1EF6B20D2E5DD80A9F9C48C0
:101240005B003818059FC0190019C175D35A68464C
:1012500003829FB2924B0DA8DA8A0EA90132DA827C
:101260002A1C231C0097FFF73DFF8C4BB2009A18F5
:1012700050680D9941185160321C0E329100591876
:101280004868D20084460E989A1860444860918855
:10129000042079189180518901315181321C3832F2
:1012A000910059180856854200DA0D7192009A187B
:1012B000052151568D4200DD5571311C38318A00AF
:1012C0009B1806229A56944200DA9C71734A8B004E
:1012D000D318072159568C4200DDDC710E36F6001A
:1012E00092190621535EBB4200DBF8E06B461B8A75
:1012F0005472D3801572F2E05B00D35A0493002B32
:1013000000D1ECE06B4F00230F930426BC460FAADC
:10131000013EF6B26046684F815DBB5D091949B276
:101320005B1901315BB209015F480133CB18C15C25
:101330000023C8B2471E0D2F03D909E00133DBB2E9
:1013400000E040B2D75C002F01D08742F6D1D154E3
:10135000002EDDD1331C0FAA9A5CDFB2002A04D024
:101360000133042BF7D11F1C02E0002F00D1B6E09F
:101370000A994F4B059ACB189B183A1C1B190F3230
:10138000DA75049B2A1C00930DA8231C0EA9FFF7F5
:10139000A9FE391C0D9802F03DFC391C07900E98EF
:1013A00002F038FC391C0890049802F033FC7B1ED4
:1013B0004142002209930B910692384B03901EE0A4
:1013C000925D0136013A52B29100591848680E32C6
:1013D00084460798F6B284446046486091005918E4
:1013E0004868D200844608989A1884446046486049
:1013F0009188039841189180518901315181069A51
:10140000049811180B981218099806920FAA864290
:10141000D6DB0491905D013840B286009E19716858
:101420000E308C4607998C446146716086009E1987
:101430007168C0008C4608991B188C446146716025
:101440009888049EA44631189980598901315981A0
:10145000012100233FE03C20C0186E46845D601EE1
:10146000049CC0B20690A05C461E0698F6B2B0423C
:1014700006D214244443A619074C0120A05508E0C5
:1014800014204643069C044836190696069C0126FD
:101490000655013218E0C046000600202C07002047
:1014A0008C0400209813002000020040000400403B
:1014B000F1130020943E0000983E00004CB20FAEA5
:1014C0003619002204960794079C1019B842C2DB13
:1014D00001310133C9B2099EB342EFDB6446013CDE
:1014E0003B4B5B689C4200DB9DE6059F013D163F40
:1014F0000597374BDA68954200DB92E6354F0025B9
:101500006B00DB1974331E88002E2FD0EC19606835
:1015100036B2311CC00102F07DFB6060E06B311C13
:10152000C00102F077FB231CE063E5331A7851B267
:101530000A2901DC01321A70231CE4331A7851B2F3
:10154000002901DD013A1A70231CE7331A7851B2E1
:10155000112901DC01321A70E63423785AB2002ACC
:1015600001DD013B23700435382DC9D11A4B1B48CE
:101570001A781B4B191C33331E7832310F780368ED
:10158000B4461EE0013AD2B2164C5100615A0EB276
:10159000F643F6170E40111D4900B5B20E52002D4C
:1015A0000FD0114E2DB28E5F002E04DCBD4207DA43
:1015B00000250D5205E0654502DA00260E5200E0D6
:1015C0000133002ADED1054A11B01360F0BDC046D8
:1015D000981300202C070020CC0C002018010020BC
:1015E0002A110020261100200C010020F0B5A64C85
:1015F000431C8FB0DBB20A932368071C0E37013BF4
:101600002360FB00E318039202930897051C042053
:101610001F5E0E1C05970F1C0E37FB00E31804938A
:10162000099704201F5E05980697C71907978B0036
:10163000AF00E719E3187868059A5B68069950438C
:101640004B430799181802F0E5FA00B27860089B3E
:1016500009989F008300E719E3187868059A5B688A
:10166000069950434B430799181802F0D3FA00B279
:101670007860281C38308000201803990422043038
:1016800002F02AFB049FFB88029F1AB20621795EB2
:10169000914209DA029FFB80049F7B7A029F7B7252
:1016A000049F3B7A029F3B722A1C331C0E320E337E
:1016B000D200DB00E318A4189988A2888A18A280B7
:1016C000598962898A18F1B2481C40B202901420EC
:1016D00068436281029C002220189A800490131CA7
:1016E00006910EE0142474430499A44678180299D4
:1016F0008C446744C15CFC5C2143C1540020F85415
:1017000001330132069CD2B2101940B25F4F0D284E
:10171000E8DD14206843BA190023C71911E0AB4271
:1017200005DA911B4C5D10782043485505E0AB422B
:1017300003DD1078F95C0143F95400211170013385
:101740001432B342EBDB039F68463F7810210497C5
:1017500008561627079047430022AC465EE0039CDC
:101760000020A1784A4C4DB27B191B1908950D93A6
:101770004CE0089B0D9CC31824180993E37D079D3A
:10178000013B5519DBB20B95029405936D46142469
:1017900063570F2B37DD0023012506936D42042389
:1017A0000092013B3B4CDBB2E4563B4A0C94D256D0
:1017B0000B9CA418013416226243354CA418099AD4
:1017C000A2180C9C019214190C946478013CE4B2A8
:1017D0000D2C0DD864B2644501D0B44208D16A1C06
:1017E00002D0A54202D103E0251C01E001240694A9
:1017F000002BD6D1069D009A002D04D06B461424F0
:10180000E45C029BDC750131C9B20130039D032405
:101810002C574BB29C42ACDA013216370498039C29
:101820000121131861565BB2994298DA237800209F
:101830005DB201351624AC461EE0039D67463A189A
:10184000A97862434DB20135AA18114D52190AE028
:101850001578013D6DB2B54202D10AAF3F781770DD
:101860000131C9B20132039D0327EF574DB2AF4298
:10187000EEDA0133DBB20130039F012179565AB20F
:101880009142DADA0FB0F0BD2C07002000060020EC
:10189000F1130020943E0000983E000010B50B7834
:1018A000002404575AB2944200DD03704B7801249F
:1018B00004575AB2944200DA43708B7802240457DA
:1018C0005AB2944200DD8370CB78032141565AB25C
:1018D000914200DAC37010BDF0B58BB00024231C18
:1018E0000E333C48DB00C31804215A5E002A6BD03B
:1018F0005A7A02921B7A16221F1C013F7A430393E5
:10190000354BD3180193029B0133180105930790BF
:1019100055E0029E013E4BE00198172583195D5763
:101920007A1C013D711C0D2D41D8AC423FD00901FC
:1019300088182A4B00914000C05A0690201C0E3097
:10194000C1002448844661440620095E2448C08CB6
:101950008446069881422ADC6046414388110099FA
:101960008C4604998C4461464900C95A88421EDA63
:1019700007998A185200D35A984218DAA54202DA17
:10198000231C2C1C1D1C2A1C124B3832211C9200BB
:1019900038319A1889005268C918043109A8099287
:1019A000FFF77CFF201C291C09AAFFF71FFE023647
:1019B000059A9642B0DD019B02372C3301930398C0
:1019C000013004908742A4DD01340D2C87DD0BB07B
:1019D000F0BDC0462C070020F11300200004004099
:1019E0002A110020F0B5CA4B9DB01A68C94B012AD4
:1019F00007D1C94A1268012A03DD5E8C0A969B8CC6
:101A000002E0DE8B0A961B8C0B930D2478E11423E5
:101A10006343C24E5B199B5D002B00D16AE1BE4E51
:101A2000A700AB00F719F3187A6802935B68201CD3
:101A3000D31A0E300893291C8300F3180E31059336
:101A40008B00F31806930390059B06985A68436829
:101A50000191D31A0899D817CA1709931B18891826
:101A60004340514004932B1C07913833211C9B00A9
:101A70003831F31889005B68891904311BA81B935E
:101A8000FFF70CFF01997868CB001590F31804213B
:101A90005A5E03990192CB00029AF6185768019B8F
:101AA0000422B65E0199F3180293331C7B4348432A
:101AB0000299C01802F0AEF8059A1690069853687D
:101AC00001991797476818937E434B4302999819D9
:101AD00002F0A0F80C221990002112A81A9702F027
:101AE00039F96D226A4412786E2352B20E926B4419
:101AF0001B786F265BB20F936E4436781BA876B2C4
:101B00001096002282561620571C4243844B002612
:101B1000D31805961193B5E0069EF6010C960F9E1C
:101B2000A5E01198059943189B199B7D5BB2029320
:101B3000013B0D2B42DD0020012149428446042354
:101B40000096013B774ADBB2D256774E0392F656A7
:101B5000069A9219013216265643714A9219019E2D
:101B60009619039A0D96B2180392527852B2013A1E
:101B70000D2A0ED8AA4201D0A24204D14E1C04D094
:101B8000914204D105E0012003E0111C01E0012293
:101B90009446002BD5D1009E013168D03201D21974
:101BA000624B5200002813D06046002810D10299E1
:101BB000985A0F3902F02EF802900BE0002B56DBFA
:101BC000AB4201D0A34252D13201D219574B52003D
:101BD000D35A02930299002949D0019A0323D201D2
:101BE0000D920193019B0799013BDBB2049A980087
:101BF0000193039091420FDD18AB18580D99099A83
:101C0000401A5043089902F005F8039A15A98B5819
:101C1000C0180C9BC01A0FE0039A15A988580C9B9A
:101C20000899C01A4843099901F0F4FF039918AACA
:101C300053580D9AC018801AC317C01858407F28EF
:101C400012DC01998B0080210A1A02984821424334
:101C5000D211C91803926A468858039984460A1C0F
:101C60006244483368461A5001990029BAD10136B6
:101C7000109B721E01929A4200DC52E7059E0137CA
:101C8000163605960E987E1E0696864200DC43E7C1
:101C9000149B129E9E4200DD1E1C0799049A9142DD
:101CA00002DC131E0ED003E0079B049804930790F8
:101CB00007998801049901F0ADFF3F2800DD3F201E
:101CC0001B4B1B5C2D210A9AC81A50430B9A534395
:101CD000C01801F09FFF4643139BB612B34209DDC3
:101CE000A54202DA231C2C1C1D1C201C291C1BAA2B
:101CF000FFF77CFC01350E2D00D088E6002C02D0C9
:101D0000251C013C83E60B4B1DB01B68F0BDC04693
:101D1000E41300202A1100202C07002000060020D8
:101D2000F1130020943E0000983E000000040040A3
:101D3000543E000034000020F7B5012149420F2233
:101D40001C4802F007F8FFF7C7FDFFF74BFE1A4CDF
:101D50000023261C2360743601931F1C1D1C0021C8
:101D6000725EFBB2002A1DDD226801322260114A38
:101D7000D5559D4214D00199AA000B195968A21893
:101D8000281C51600E30DA6B8300C000E318201865
:101D90005A600430311C082201F09EFF002333807A
:101DA0000135EDB2019A01370432083601920E2F47
:101DB000D5D1F7BD480800202C07002049434043F7
:101DC00040187047F0B5954B85B01B78E020002B8C
:101DD00001D0800200E04002914A924BD18A1980E2
:101DE000128A5A80904B0022191C94310A80191CC7
:101DF0009A310A80191C8C310A80191C92310A8090
:101E0000191C84310A80191C8A310A80191C7C3102
:101E10000A80191C82310A80191C74310A80191C2D
:101E20007A310A80814A1168021C884200DD0A1C4E
:101E300001211A6049420E227D4801F08BFF7D4846
:101E4000FF21382201F086FF784B00241B680393A2
:101E5000794D2B5D002B40D0784EA300F7580A2017
:101E60003F014743764BE021620049020126D31827
:101E70007F187642002502931FE02B1C0E336B481F
:101E8000DA0082180421525E002A14D00299AA00B6
:101E9000821850688A889B00801A644A00B2D3185E
:101EA000029A5968138BC91A09B2FFF787FFB84223
:101EB00001DA2E1C071C0135EDB2039B9D42DCDBD1
:101EC000751C0AD05A4B5B499857B200013002D0BA
:101ED0008858B84201DD8F509C550134052CB7D18C
:101EE0000023524A504934E0514EF05C44B2013470
:101EF0002DD09C00C0B2161987007668CD196E608F
:101F00001D1C0E350195AD00AC46061C94440E36E2
:101F1000654602970394B7006C68CF197C60019FF7
:101F2000F600FD008E1955190436043590CD90C683
:101F30001D1C3835AD00383055196D688000081803
:101F40004560039C3B48029D20583C4EA8510133FC
:101F5000DBB210688342C7DB0023344C324949E0CE
:101F6000334FFA56013243D11A1C0E32D200A21856
:101F70000420125E002A3BD02F480022865CD5B296
:101F8000002E32D1D600761874360027F65F002E68
:101F90002BD127489E00C5542448950086197668A1
:101FA0004D196E601D1C0E350395204EAD00AC46DC
:101FB000101CB4440E30664675688700CF197D60EA
:101FC000039FC5001948FE0086194D1904350436D3
:101FD00081CE81C51D1C3835144EAD0038327019C4
:101FE000920040688A18506002E00132052AC5D18B
:101FF0000133DBB222689342B2DB124B0C491C1C4A
:102000000E34FF201A78042A02D88A5C1A7000E085
:1020100018700133A342F5D105B0F0BDED040020E6
:102020008C04002044150020C80200202C0700204A
:1020300065080020AC13002050010020280100207A
:10204000D00C002048080020F0B52548254A264934
:102050000523013BDBB21D1C0E35EC0007190426DD
:10206000BF5F002F1CD014190426A45F002C17D0CA
:102070009F00D419C71964687F685E00E71B7F1052
:102080003C19AD008F19BC805419451964686D68FE
:102090001F1C651B0C376D107F002C19CC530EE0F4
:1020A0009D0055196D685C000C19A5801D1C0E352E
:1020B000AD001C1C55190C346D6864000D531D1CBB
:1020C000084C0E35ED0065190426AD5F074E6F1EF6
:1020D000BD41F554002BBCD12268034B1A60F0BD02
:1020E0009C010020C8020020D00C002050010020DC
:1020F00008B500210A220B4801F02CFE0A4B0022F1
:10210000191C94310A80191C8C310A80191C8431E5
:102110000A80191C7C310A80191C74310A801A60EB
:1021200008BDC046BC020020C8020020034B0122AB
:1021300052425A6000221A609A60704718010020CB
:1021400008B5FFF7D5FFFFF7F1FF08BD38B5234B02
:102150000022234C5A60111C0523013BDBB2181CE2
:102160000E30C00020184089251C0918824200DA70
:10217000021C002BF1D11B482C68016017484260FB
:102180001948002C1DDD194BDC8FA14203DB991C83
:10219000C98F8A4203DA0433DB8F9A4201DB0123C1
:1021A00003700278124B002A02D01A6801321A60BA
:1021B0001A683C2A0BDD00221A600E4B0D221A70A1
:1021C00005E00D4A01211170094A03701360064BA6
:1021D0001B78002B01D0FFF7B3FF38BD1807002094
:1021E000C80200203C150020240100202A110020F4
:1021F00048000020640800203000002038B5594312
:102200005043D418651040184019211C01F002FDFC
:1022100038BDF0B5A649A74A0B1C3A331F780B1CF2
:1022200056331B7852688BB053439B110E8EA24DD0
:1022300002932E24085F2A6805230390013BDBB23A
:10224000181C0E30C0002818818800292CD09B4C07
:1022500009B2E45C002C02D064B2BC4217DA0398E5
:10226000814208DB191C0E31934CC9006118498961
:102270000298814218DA181C8F490E30C0000818E5
:102280000021C180418181809C008D480AE034B2E8
:10229000A14209DA0021C1804181818098008446F1
:1022A000874864462150013A002BC7D18549824DA9
:1022B0000A602B600524013CE4B2231C0E33DE00CF
:1022C0000796AF19BA88002A00D192E0784E12B270
:1022D000318E7D4E08B2121A52104900511889B23F
:1022E000029168460821085A744AB880115D367810
:1022F00048B20396B04202DA013111554FE07348FB
:10230000A600724982199B005068CA185268AE191B
:1023100001922A687168EB1801322A605A680893A2
:102320000B1A0492DA179B1853409C46019A049B9F
:102330009B1ADA179B185340634405935C4B362273
:102340009B5E1A1C0693059BFFF758FF04990990A2
:10235000069A0198059BFFF751FF099B5B49736043
:10236000089E079A7060524E3820365E01968E188D
:102370000423F05E6A460823995E431ADA179B1815
:102380005340019AFFF73AFFB88070897989019A22
:10239000431ADE179B197340FFF730FF78814B4AD1
:1023A000454BA100501859184968261C0E3641604B
:1023B000B100501859184968F600416091199E19EA
:1023C000B4460427BC44029604316046C0C8C0C16C
:1023D000211C383189005B185B6852185360374BF9
:1023E000039E1B57B34206DA0123029F5B42BB8068
:1023F00001E0324E3255002C00D05CE72E483349C4
:1024000005680A68324B954227DA1A6801321A6069
:10241000002A1DDD021C1C60943212880B1C9433B0
:102420001A80021C8C3212880B1C8C331A80021CFE
:10243000843212880B1C84331A80021C7C320B1CE1
:1024400012887C331A807430038874310B8005E065
:102450008E22520001F040FC00E01C60164B01216E
:102460001A681A4B124C1A601A4B00204942186025
:10247000596032342478184A64081278A446061C3D
:1024800030E0013AD2B2171D7F00DD5B141C002D35
:1024900009D02DB26D106544ADB2DD532DB20130BF
:1024A000AE421DDB01E00D4FBD540C1C19E0C046CF
:1024B0002A11002018070020C80200201C1100204B
:1024C00028010020E4130020641100209C0100205A
:1024D000B802002018010020CC0C0020A10C002024
:1024E0002E1C211C002ACCD1434A1860596031CBE4
:1024F00031C2424B1B68012B5BD1414B0E269A5FC8
:102500001D2A64DC9A7C1420041C5443DB7C3D4966
:10251000E418651E6D006D5E033522DA0234640036
:10252000645E02341DDA541C4443E4186400645EA3
:10253000052C06DD941C6043C0184000415E01314B
:1025400041DB541E142044432E49E4186400645EA9
:10255000052C06DD941E6043C0184000415E013129
:1025600031DB1420041C5443E4182649023C640067
:10257000645E05342BDA541E4443E4186400645E40
:10258000052C06DD941E6043C0184000405E0130FB
:1025900019DB541C14204443E41864000C5F052C20
:1025A00015DD02325043C3185B00CB5E01330EDAF7
:1025B00009E0022B0BD1124A937F032B07D9D27F5C
:1025C000D318062B03DD104B1A69013201E00E4BC4
:1025D00000221A610D4B1A780B4B002A01D0002201
:1025E0001A611A69032A04DD00221A61084B0D22C0
:1025F0001A700BB0F0BDC0460C010020C8020020CC
:102600008C0400208E110020840C0020ED0400209A
:1026100064080020F8B5344D041C0A23EE5E0368FC
:1026200069681801C31A5801C90101F0F3FA361894
:1026300026600823EF5EC820636829688000C9010E
:10264000584301F0E7FA2A693F1867602749964224
:1026500007DA0631CB7FB61A5E43B61192192260B3
:102660000CE0F0235B009E1B964207DA0631C97F1F
:10267000B61A4E43B61192199B1A2360EB681B4998
:102680009F4207DA0431CA7FFF1A5743BF11DB1993
:1026900063600CE0C8229200D71B9F4207DA053125
:1026A000C97FFF1A4F43BF11DB19D21A62600F4A6C
:1026B0002168931CDB7F101C994206DD0A4A52698F
:1026C000D51AA94202DB013AD31A2360C21C616801
:1026D000D37F994206DD044A9269D01A814202DB17
:1026E000013AD31A6360F8BDAC0C0020120D002033
:1026F000F0B5484E85B00524013CE4B2211C454AA2
:102700000E31CB00D31804201B5E002B62DD201C91
:10271000414B1430400018180425405F002849DD63
:102720003E4B1A5D3E4B002A01D13B3300E03C3367
:102730001F78A300F3185B6868460093231C0E33D0
:102740009B00F3185B680193FFF764FF324D630051
:10275000EB1804201B5E02A80293231C0C335B00C1
:102760005B5F0393FFF756FF029B009A291CD31A65
:10277000D8171B184340BB4207DA019A039BD31AB0
:10278000DA179B185340BB4224DBA200B2185268F0
:102790006300CB189A80221C0E329200231CB218C0
:1027A00052680C335B00EA521C4B1A5D002A11D1AF
:1027B00001220EE0A500551960006D681818890007
:1027C00085805218201C52680C304000C252134BB6
:1027D00000221A55201C0F4A0E30211CC0000E4B3F
:1027E000143110184900808859188880002C83D132
:1027F00011680C4A19600C4B1C1CE0CCE0C2012291
:10280000002902D11A68531E9A41084B05B01A706C
:10281000F0BDC046C80200205C010020BC020020C0
:102820002A1100200001002018010020FC040020D3
:10283000EFF30880704700BA704740BA7047C0BADB
:1028400070471F234209184001238340181C024B84
:102850009200D0507047C04600E100E01F234209BB
:10286000184001238340181C2032024B9200D050A4
:102870007047C04600E100E01F23420918400123D1
:102880008340181C6032024B9200D0507047C04603
:1028900000E100E070B5002816DAC0B20F23034053
:1028A000083B134A9B089B009B1803221040904052
:1028B000FF225D68141C84408901A5430A408240C0
:1028C000281C1043586011E003248208094B204063
:1028D000C032A0409200FF24D558261C86408901B2
:1028E000B5430C408440281C2043D05070BDC046E6
:1028F00018ED00E000E100E08023DB051A6B1F21EA
:102900008A4315210A431A635A6B0F218A430E2109
:102910000A435A637047074B3F2019688023DB0541
:1029200001390140044A586B090202400A435A63C4
:102930007047C046A40C0020FFC0FFFF8023DB05CA
:10294000596B034A0A40802189000A435A63704741
:10295000FFC0FFFF704770478023DB0559690822DD
:1029600011435961D9689143D96070478023DB05D1
:102970005A6908218A435A6170478023DB055A69E6
:1029800008210A435A6170478023DB0558690823F0
:10299000184043425841704730B5A023DB051A6800
:1029A000012082431A601A6810218A431A6019684C
:1029B000204A80240A40802109020A431A601A68CA
:1029C0001D49E4000A4022431A601C688022120656
:1029D00014431C601D68194C2C409025ED052C43B8
:1029E0001C605C68204358605868014080204000AB
:1029F00001435960586812490140C02080020143D8
:102A0000596058680F49014059605868802189050C
:102A1000014359605868802149050143596019688C
:102A20000A431A60C0468022596852040A435A6019
:102A300030BDC046FF0FFFFFFFF8FFFFFFFFFF8025
:102A4000FFFFF8FFFFFFFFFE38B5094B09495A7831
:102A5000DC785143084B051CC918084801F0DAF826
:102A6000064B291C01345843A14001F0D3F838BD6E
:102A7000000E002044FEFFFFFE24020040420F0033
:102A8000014B18707047C04602000020054B1968C2
:102A90008023DB05DA6B0902120E090A12060A43CB
:102AA000DA63704704000020014B18607047C0468D
:102AB00004000020024B1878434258417047C0463A
:102AC0000100002070B51349134B04241960134B07
:102AD000134D1A6822431A601A680224A2431A602E
:102AE0001A68012422430F4C1A60002222600E4A09
:102AF00011602E78ED7870430135E840091A1160B5
:102B0000206811688842FBD21A6801218A431A6042
:102B100070BDC046FFFFFF0014E000E010E000E0E1
:102B2000000E002018E000E00C07002001304300F8
:102B3000181840187047F0B58DB003AC0091071C11
:102B40000021201C242201F005F90C25013DEDB2E5
:102B5000234A281C0321565D01F052F80C23CCB205
:102B60005C4376B203AA6B1C301C03211419019339
:102B700001F050F8019A40B2800023898240101C75
:102B800018430123B3401E1C638820811E436680C6
:102B9000002DDBD103240C25009B013CE4B2002B6B
:102BA00008D02B1C634303AAD3180E4A0121D25725
:102BB000914059602E1C664303AB9E197B1C211C5F
:102BC0007381381CFFF7B2FF6843074A311C801835
:102BD0000C2201F081F8002CDED10DB0F0BDC04612
:102BE000064D0000F04C0000000C004010B5012024
:102BF00040420021FFF79FFF0024201C01210134E7
:102C0000FFF799FF132CF8D1201C0121FFF793FF48
:102C100010BD7047F0B587B003900F1C152500213B
:102C2000049100236A462A499382C97B013D49B237
:102C30006E1E02910C24013CE4B20095002D17D0C9
:102C40000023022F0FD0012F04D014226243214B06
:102C50009219D356162262431F499219525602996D
:102C600052187A439B18039A0F219B181940009120
:102C7000201C032100F0C4FF184BC9B24900019188
:102C80001857032100F0C6FF009A40B2800082402E
:102C9000101C019A04A9535A18430B1CD052002C43
:102CA000C9D10324013CE4B2211C301CFFF73EFFD4
:102CB0000C21484363006A4610339B5A0849425A24
:102CC0004352002CEED1002DA9D107B0F0BDC04673
:102CD0002A110020080E0020194D0000064D0000AA
:102CE000000C004070B5274A8023DB05147C9D68EA
:102CF000072125480C4024032840204398609C6805
:102D0000224820409860947A03209D68044020481F
:102D10002404284020439860547A3F209D68044052
:102D20001C48A404284020439860107A9C68014005
:102D300008061949214001439960986880210905D6
:102D40000143164899600488191C38310C70857845
:102D50009E6B7F21124C0D4034402D022C439C630E
:102D600004799D6B0F480C4028402404204398634D
:102D70009279986B11400A060B49014011439963FF
:102D800070BDC0462A110020FF8FFFFFFF7FFFFFAD
:102D9000FFFFFCFFFFFF03FFFFFFFFF8100700200E
:102DA000FF80FFFFFFFF80FFFFFFFF8070B58023E4
:102DB000DB0559684D4A0A405A6004225A625A613A
:102DC000C046C046D969114201D04D2103E0D969FE
:102DD000114202D14621464A117000223F205A6218
:102DE0009A62DA601A6158619A61424A0124507805
:102DF00080211871D0785D6804403F48A4072840BE
:102E000020435860107903245D6804403B48240740
:102E100028402043586055790F205E68384C0540A3
:102E20002D0434402C435C609579364C5E68054037
:102E30002D0634402C435C60D2795C68104002055A
:102E40003148C905204010435860304B8A681B7DCB
:102E5000002B03D080231B01134301E02C4B1340B4
:102E600080248B60E405FFF73DFF236B60229343D2
:102E70002363236B8022134323630025FFF73CFD6C
:102E8000FFF78AFDFFF7B2FE281C65700221FFF7ED
:102E900001FD291C0120FFF7FDFC02200121FFF7A5
:102EA000F9FC0320011CFFF7F5FC04200321FFF7C8
:102EB000F1FC02210520FFF7EDFC281CFFF7C1FC07
:102EC0000120FFF7BEFC0220FFF7BBFC0320FFF749
:102ED000B8FC0420FFF7B5FC0E4B04215D600E4BDF
:102EE0001A690A431A6162B670BDC046FFFEFFFF51
:102EF0003E000020000E0020FFFFFFBFFFFFFFCFBE
:102F0000FFFFF0FFFFFFFFF0FFFF0FFF120D00209C
:102F1000FFF7FFFFFCE100E000ED00E000B58021DD
:102F2000C9050B795A1E984209DD01E0DAB20A712F
:102F300001338342FADD04E0D3B20B71013A8242DD
:102F4000FADA00BD08B5024B5878FFF7E7FF08BD75
:102F5000000E002008B50C4A0C4B0D4901E001CAD7
:102F600001C38B42FBD30B4B0B49002200E004C38F
:102F70008B42FCD3FFF75CFC084B002200E004C34B
:102F80008342FCD308BDC0469C3E000000000020E8
:102F90004400002044000020BC1500200C16002036
:102FA000F7B5294B00241C70284B211C5C60302293
:102FB000274800F0CFFE274B274A1C7001231370CF
:102FC000264A201C1370264BD9790C23013BDBB217
:102FD000244E5D1C6A00945B14265E43224F5A0007
:102FE0000C41D453019613229C46013AD2B2531C91
:102FF0001B011C4F5B195B00FE5A019F0E41BB1861
:103000001A4F9B00DE51A61B8019002AEDD16346A2
:10301000002BDBD1124B164D5E8D002E02D14023CA
:103020002B600BE0E42100F0F5FDB601011C301C23
:1030300000F0F0FD6E2800DD6E2028600D4B0022B0
:103040001A605A60F7BDC0465E080020840C00205C
:1030500088150020A8130020AA0C0020EE130020E1
:103060002A110020000800406C1500207408002080
:10307000C80C002020070020044A00231370044AD3
:103080001370044A1370044A13707047100D002027
:10309000A00C0020EC130020F0130020F0B5C04B72
:1030A000A3B01C78002C00D0CFE2BE4ABE481278F4
:1030B0000378039201325D1C12015219BB4F52007A
:1030C000D25B5D009446BA4A6646A95AB94AD57998
:1030D0002E418D1B4E218E5EB44601260796654516
:1030E0000ADC50320027D65F69461C277A5CB5425D
:1030F00000DB221CD2B207920133DBB203700B2B30
:1031000009D90399A74B01310022C9B20270197085
:10311000122900D91A70A849A84B0022A84C9A601D
:103120005A611A62DA625A601A61DA619A621A6046
:10313000DA609A615A624A60FF230A604A838A828F
:103140000A830A82CA818A608A81CA778A77CA74A6
:103150008A7498492260A2606360E360C879182687
:103160001490149C97481C272041199096484D783C
:1031700000681A951B90954800781C90081C353003
:1031800000781D90924800781E908E571696CF5763
:103190001F97497E029249B2179112921092119292
:1031A000069215920F9204930E920C930D920A922E
:1031B0000C21099213921892089228E1039C4E1C4C
:1031C0000B96671C209E0397E3B2059300273319E3
:1031D000039EDF750B9F3301DB19744F5B00FE5AB2
:1031E000149B199F1E41BE1BF343DB171E401A9B05
:1031F000002B07D0774B219FFB181B5D5E431B9B69
:103200005E4336135027744B4F439C461C9B6744C8
:10321000002B10D13C58059717B2A41BA74200DA27
:10322000A2B26F460823DF5FA74201DDA4B2029479
:10323000059C2650E5E03F587F1101970023EF5E83
:10324000BC46019FBB1B1D9F002F0AD073009B191A
:10325000019E00936746F31B009E019FF3189B108D
:10326000FB1A1E9E002E04D06746FE1876102E8094
:1032700000E02B802E886F46043701960026BE5F43
:10328000089FBF19089717B2B74201DA6E46B28895
:103290006E460827BF5B92B237813EB2B4466E4697
:1032A00004360027F75FBC4502DD6F46BE883E81CD
:1032B0006F463F890297002B3ADB132B03DD129FE9
:1032C000FE18B6B21296062B06DD059E002E03D11F
:1032D000109E0136F6B21096169FBB4203DBDE1B32
:1032E000119FBF1911976F4618370026BE5FB34272
:1032F00004DB059F9EB20696159718911F9EB34258
:103300000FDB0F9F8F4200DA0F91049E8E4200DD8B
:1033100004910E9FA74200DA0E940C9EA64200DD97
:103320000C94039F9CB23E010B9FF61976001FE0A0
:103330000D9CE41A0D945E1C06DA059F002F03D144
:103340000A9C0134E4B20A94179CA34203DC099E50
:103350001C1B3619099613AF00243C5FA34201DC05
:103360009CB21394039F0B9C3E01361976000024F7
:103370000E4FBC53059E022E43D80A2B2EDD0F4C58
:103380001F1C261C24360A3F059787590C34BC465F
:10339000059FBC446746875106599E4231DA2FE0AB
:1033A000100D0020B5040020B404002000080040E7
:1033B0006C1500202A1100208C0400206C000020D5
:1033C00098130020FFFF0000C80C00205E080020BA
:1033D000ED040020634E0000740800201C1C0A3419
:1033E0000FDA9B4C1F1C261C18360A370597875985
:1033F000BC46059FBC446746875106599E4200DD86
:103400000351039B04300235132B00D0D6E601395B
:10341000C9B2FF290ED016264E438E4B2825F3182D
:10342000209314234D434B438B4C00202D192193A3
:10343000041CC4E608266D46755B12AE874C3688C0
:1034400010AFA6813F78119818AE228369461822E2
:103450003678834B6583E777555A20600E9A0F982C
:1034600015AFA6743F7804990C9E1A60986013AA51
:103470000AA8D9605E60E7747A4B007809991288CF
:103480000D9FE581A0776160A7600026995FA28209
:10349000089800F0BFFB744BA0839B7E2DB29D4229
:1034A00003DA1427E35F073302DA704B01221A7044
:1034B0006F4B704A1B78002B0AD1079C002C07D059
:1034C0006D4901230B70694913700B706B490B70C8
:1034D0001178002900D0B8E0634A694BD579101CF7
:1034E000039552300027C65F101C04965430002507
:1034F000445F1B7805945678581E0696927E4700C6
:103500000792604A604C1268BC4608925F4A80008D
:103510001278644402928446574A5D48029F0A9496
:10352000604416787C427C41504A64421578099484
:10353000524A0A9C12780B94AC463FE0554D013B31
:10354000EC56554DEF56651C01373F017F19029728
:103550007D00524F7F5B524D029767007C5B039D5D
:10356000029F2F41424DBFB22D78E71B002D09D19C
:10357000049CA74202DC059DAF4203DA0122111C24
:103580009446161C069CBFB2002C04D0454DED5C41
:103590006F43BF11BFB20568079C6D11ED1BADB243
:1035A0002FB2A74200DB0121089F002F01DD099CFB
:1035B00025400B9C04382580023C0B94002BBDD188
:1035C0002D4865460670294805702A4801702B4928
:1035D0000A701A1CA02501336D0059192F4E49009D
:1035E00072520C2BF6D100232A4A2F481D1C264F5D
:1035F000F95E1E2925DD002414572C4FE6197600AC
:10360000375ABC462A4FE7197F0002973F5A1234B7
:10361000FF3402976400245A0394644664008C4289
:103620000FDA7F008F420CDA039F7C008C4208DAAD
:103630001A491A4C8D53002151562231FF3149004D
:10364000655202330132042BD1D123B0F0BDC04604
:103650006C000020F11300208E1100208C0400204B
:1036600098130020A80C00202A110020A00C002094
:1036700033000020EC130020F0130020D4040020BD
:10368000CC0C00209C01002026110020ED0400201D
:1036900020070020174D0000154D000000080040D5
:1036A0006C150020674F000000040040310100004D
:1036B00021010000F7B50F4B0F4A104FD9790C23A9
:1036C000013BDBB25C1C6400145B451C07D15E004F
:1036D00001960C41261C0A4D019C665307E0A44646
:1036E00014245C4365462418A4000D41E551002BC9
:1036F000E6D1F7BD2A110020000800407408002020
:103700006C150020F7B51D4B0025DE798C460C2387
:10371000013BDBB2411C03D1194A5900895A05E02B
:1037200014215943174C09188900615A5C1C164A28
:103730006400A75A3741C91BCF17C91979406D18C2
:10374000411C0DD1A15A5A003141019200916F469E
:103750003A880B49019F7A520B4F0021E15308E050
:103760000949675A14245C4306492418A4003741C8
:103770006750002BCCD161460D60F7BD2A110020A7
:103780006C1500207408002000080040F7B5814B3C
:103790001B78002B2BD0804B804E1878804B44B286
:1037A00019685B68A200CB189351411C0023271CA9
:1037B000C9B21A1C0C37A51A00D5BD1AAD00AD59F7
:1037C0005B190D1C0B2901D90C3DEDB2AD007559EB
:1037D000013101325B1BC9B2062AECD101306E4ABD
:1037E000C0B2107040B20B2801DD002111706D4A8B
:1037F0001278002A00D0CBE06B4A1420115E8B4275
:1038000002DA6A4B0121197065491823C85E1A242F
:103810000B5F917DC31A8B4206DC654B1A7851B25F
:103820000132022905DD05E0D27D934202DB604BC7
:1038300000221A705D49574B0A78002A43D05C4A2F
:103840001278002A04D1187800283CD00A703AE097
:10385000032A38D11C780C21564A1AE014254D430E
:103860001323013BDBB2002C08D1EE18B700D0596E
:1038700076004001D051504FBC5308E0EF184E483D
:10388000BE007F00C75F90597F01C71B9751002B77
:10389000E7D10139E2D23F4A00231178994205D19C
:1038A0000123137008E05818026301E03B491A1C19
:1038B000043B1C1C3434F6D13C4B00221A703F4BA5
:1038C00001221A7064E01A783D4B002A06D13B4A67
:1038D000012111701A6852181A6059E000221A600A
:1038E000384B344A1F782E4B1C269B5FD91758182B
:1038F000484001900C2120E014254D431323013B47
:10390000DBB2002F08D0EE18B00074002A4E345FEE
:103910001658341B14500EE0E818274C860040005F
:10392000205A04B2072C00DD0720019C00B2A04001
:103930009459201A9051002BE1D10139C9B2FF29C5
:10394000DAD1194BDC7E1F4B1B78002B01D164B2FE
:1039500001E0642464421C4B1B78002B18D11B4BE4
:103960001B4A1B781B4811E0013BDBB29D00A958A4
:10397000002903D05E00865FA64204DA5E00865FFF
:103980009D00760100E07600891BA950002BEBD149
:10399000F7BDC0465E080020A8130020881500204F
:1039A0008C040020A00C00202A110020EE1300201F
:1039B000AA0C0020740800208E110020F0130020B3
:1039C000CC040020ED040020EC130020CC0C0020DF
:1039D000200700202611002010B50749582207486B
:1039E00000F07AF9064C0749201C382200F074F9DF
:1039F000A27B054B1A6010BD404C00002A1100202C
:103A0000120D0020084C00004015002008B50449A4
:103A1000044B41430448C91800F0FCF8C0B208BD8B
:103A200044FEFFFFFE24020040420F0070B5234C0D
:103A30000023E3700225224B2571E5719E78042E48
:103A400007D1B020A070FFF7E1FF0623207063715B
:103A5000A5711C4B1B78AA2B2AD11B4B1B4A1B7828
:103A6000127858B251B240181949097849B2401831
:103A70001849097849B288421AD1022E05D0043E6D
:103A8000724256417642334000E0131C0B4A0C4907
:103A900094784831097858B220184018FF2803DD7F
:103AA000C943C9B2917003E09178CB18DBB293702F
:103AB000024CA078FFF7AAFF207070BD000E002016
:103AC0002A110020A000E000A100E000A200E00018
:103AD000A300E000A400E00038B5124C124D23789A
:103AE000FA209A00D3189B10DBB22B802378800039
:103AF00058430E4B9988C90000F08CF8C1B2698018
:103B0000237823205843C90000F084F8084B022290
:103B10001A70084BE4221A80074BC0B23F22A880DB
:103B20001A6038BD000E0020100700202A11002066
:103B3000CC0C0020A80C0020A40C0020704710B56D
:103B40001C1C029B88420ADB904207DA1B1B401AAE
:103B50005843511A00F05EF8241800E01C1C201C89
:103B600010BDC04602B4714649084900095C4900CD
:103B70008E4402BC7047C046002934D00123002285
:103B800010B488422CD301242407A14204D28142DC
:103B900002D209011B01F8E7E400A14204D28142EC
:103BA00002D249005B00F8E7884201D3401A1A4369
:103BB0004C08A04202D3001B5C0822438C08A042A0
:103BC00002D3001B9C082243CC08A04202D3001B56
:103BD000DC082243002803D01B0901D00909E3E7D0
:103BE000101C10BC7047002801D00020C04307B44F
:103BF000024802A14018029003BDC046D90000004F
:103C00000029F0D003B5FFF7B9FF0EBC4243891A73
:103C10001847C046002941D010B4041C4C40A446AB
:103C200001230022002900D54942002800D5404246
:103C300088422CD301242407A14204D2814202D21B
:103C400009011B01F8E7E400A14204D2814202D23B
:103C500049005B00F8E7884201D3401A1A434C0838
:103C6000A04202D3001B5C0822438C08A04202D36E
:103C7000001B9C082243CC08A04202D3001BDC0896
:103C80002243002803D01B0901D00909E3E7101CD7
:103C90006446002C00D5404210BC7047002806D076
:103CA00003DB0020C043400801E08020000607B489
:103CB000024802A14018029003BDC046190000004E
:103CC0000029EBD003B5FFF7A7FF0EBC4243891ACA
:103CD0001847C0467047C046F0B5051C0F2A2FD9BB
:103CE0000B1C0343051C9C072CD10C1C031C151C2E
:103CF0002668103D1E6066685E60A6689E60E66885
:103D00001034DE6010330F2DF2D8131C103B1B094A
:103D100001331B01C518C9180F231A40032A0FD9F4
:103D20000E1C2C1C131C80CE043B80C4032BFAD821
:103D3000131F9B0801339B0003242240C918ED1870
:103D4000002A05D00023CC5CEC5401339342FAD115
:103D5000F0BDC04670B5830742D0002A3FD0013A7B
:103D6000CEB2031C032503E0541E002A37D0221CC8
:103D70001E7001332B42F7D1032A28D9FF250D40AD
:103D80002C0225432C0425430F2A13D91C1C161C76
:103D9000103E25606560A560E56010340F2EF7D8F1
:103DA000141C103C2409013424011B190F24224047
:103DB000032A0CD91E1C141C043C20C6032CFBD85F
:103DC000141FA4080134A40003252A401B19002A4B
:103DD00005D0C9B2013A19700133002AFAD170BD79
:103DE000031CC9E770B5114B114A1C6811688C425D
:103DF00018D01B6816680F4ADBB21568F6B20624A5
:103E00000F210130221C5A43AA1812780A4082421C
:103E100009D05A1CD2B21D3BDBB21D2A00D8131C9C
:103E2000B342EFD1044B18B270BDC046A4000020CD
:103E3000A00000202C000020FFFF000000B5074A72
:103E4000074B10681968884202DB10681B6802E0A3
:103E500010681B681E30C01A00BDC046A0000020BC
:103E6000A400002000010203040405060708090A53
:103E70000B0B0C0D0E0F1011111213141515161734
:103E80001818191A1B1B1C1D1D1E1F1F2021212263
:103E9000232324242525262727282829292A2A2BB5
:103EA0002B2C2C2DFF00000100FF01000000000062
:103EB0000000000000000000000000000000000002
:103EC00000000000000000000000000000000000F2
:103ED00000000000FF0000004A0D002001FF020169
:103EE0000104000444000C0604034100010000002A
:103EF000FFFFFFFFFFFFFFFFFFFFFFFFFFFFFFFFD2
:103F0000FFFFFFFFFFFFFFFFFFFFFFFFFFFFFFFFC1
:103F1000FFFFFFFFFFFFFFFFFFFFFFFFFFFFFFFFB1
:103F2000FFFFFFFFFFFFFFFFFFFFFFFFFFFFFFFFA1
:103F3000FFFFFFFFFFFFFFFFFFFFFFFFFFFFFFFF91
:103F4000FFFFFFFFFFFFFFFFFFFFFFFFFFFFFFFF81
:103F5000FFFFFFFFFFFFFFFFFFFFFFFFFFFFFFFF71
:103F6000FFFFFFFFFFFFFFFFFFFFFFFFFFFFFFFF61
:103F7000FFFFFFFFFFFFFFFFFFFFFFFFFFFFFFFF51
:103F8000FFFFFFFFFFFFFFFFFFFFFFFFFFFFFFFF41
:103F9000FFFFFFFFFFFFFFFFFFFFFFFFFFFFFFFF31
:103FA000FFFFFFFFFFFFFFFFFFFFFFFFFFFFFFFF21
:103FB000FFFFFFFFFFFFFFFFFFFFFFFFFFFFFFFF11
:103FC000FFFFFFFFFFFFFFFFFFFFFFFFFFFFFFFF01
:103FD000FFFFFFFFFFFFFFFFFFFFFFFFFFFFFFFFF1
:103FE000FFFFFFFFFFFFFFFFFFFFFFFFFFFFFFFFE1
:103FF000FFFFFFFFFFFFFFFFFFFFFFFFFFFFFFFFD1
:10400000FFFFFFFFFFFFFFFFFFFFFFFFFFFFFF447B
:104010004D3148305052343400B5002802D00128C8
:1040200015D102E00A4A0B4B10E00B4A0B4B1A6009
:104030000B4A0C4B1A600C4A0C4B1A600C4A0D4B85
:104040001A600D4A0D4B1A600D4A0E4B1A6000BDE6
:10405000DD40000008070020CD420000680000207D
:1040600001460000640000205146000018000020B6
:10407000794A0000140000200D43000010000020C9
:10408000794000000C00002008B5124B1B88DBB201
:10409000AF2B1BD0B22B19D0102B19D1FEF76DFC12
:1040A0000D4A002313600D4A11680D4A12689142AF
:1040B00002D108E0C04600E00A4B013B002BF9D1D9
:1040C000FEF754FC04E0084A136001E0FEF755FCDB
:1040D00008BDC0461C00002020000020A4000020D5
:1040E000A0000020E903000084110020F7B501388A
:1040F000132800D9BEE0FFF735FD0A12BD1ABDBD79
:104100002554BDBD90BDBDBDBDBDBD95A4B85A4B28
:104110001A785A4B1A705A4B9A785A4B8FE0FA20F9
:10412000C000FEF7CFFC584B00229A61A2E057492D
:1041300000230A689A4202DD4B68D318DB0F544A09
:10414000137097E0534B1B78002B10D04F4A0E236F
:10415000D15E4D4B132908DC9168282905DD928931
:104160004F2A02D85A68013200E000225A604A4BB6
:104170001B78002B00D07DE0484B1A68484B192A69
:1041800003DC484A1278002A01D0474A00E0474A37
:10419000101C3D30191C0078D28D3D310870DA8535
:1041A00068E0434B1B78002B64D03B4B1B78002B03
:1041B00060D13C4B1B7801933E4B1D68002D00DC09
:1041C00001250C243C4E25E01A0112195200925B85
:1041D000013B8018384F002BF6D10199002901D0FE
:1041E000132103E01321FFF715FD291CFFF712FD32
:1041F00013231A0112195200B95A091A002901DDB4
:1042000089B200E00021013B9153002BF1D1013C28
:10421000002C2FD013230020D6E7284B02201B6848
:10422000984727E0184B5A682D2A23DD1D4A12783B
:10423000002A1FD15A60FDF783FF214B10221A700C
:1042400018E0174B04229A70872252009A8020228D
:104250009A710522DA7101221A721E225A72002204
:104260001A70184B9A785A7004E00D480F4958227A
:10427000FFF732FDF7BDC046FF4B000004070020EA
:10428000120D002005070020840C00208C04002063
:10429000EF130020A00C0020F2040020E8130020FF
:1042A0002A110020ED040020984C0000404C000032
:1042B0005E0800205C01002000080040640000202F
:1042C00064080020000E0020024B1A68024B1A609E
:1042D0007047C046A0000020A400002008B5FFF7EA
:1042E000F3FF08BD10B50A4C06222168094B514363
:1042F0001B6809485918FFF7EFFC23680133236056
:1043000023681D2B02DD23681E3B236010BDC046C1
:10431000A40000202C00002088110020F7B59A4A44
:1043200013881BB2102B00D17BE024DC072B00D1BB
:10433000F2E00EDC032B00D19AE003DC022B00D06C
:1043400020E189E0042B00D19BE0052B00D019E18E
:104350007DE00C2B00D1A2E006DC082B00D1E6E0CA
:104360000B2B00D00EE194E00D2B00D19EE00F2B23
:1043700000D007E12FE0B22B28D011DCAE2B00D10A
:10438000ECE006DC1F2B00D1C3E06B2B00D0F9E082
:10439000DBE0AF2B00D1E8E0B12B00D0F2E011E080
:1043A000C22B00D199E006DCC02B00D187E0C12BE5
:1043B00000D0E7E089E0E32B00D195E0F62B00D0B8
:1043C000E0E094E0714A1178714A1170714A1178F5
:1043D000B222D31ABFE0FFF731FD6F4C2060236893
:1043E000002B01D1FEF7C9FA236806225A43684B15
:1043F0006A4C1A700025684E0FE0FFF773FF68469D
:1044000067490622FFF768FC002369465A5CE254BC
:104410000133062BF9D10135063433689D42ECDBBC
:10442000B0E060495C4A0C681368062058430023DA
:1044300084420ADA594A0868554D1018C45C581964
:1044400001330470082BF6D19CE013609AE0564BC0
:10445000DA8D4F4B1A7095E0544A0F231A27D15F1B
:10446000527F091152B299431340494ACB18137035
:10447000454B1A88032312B29A1A4C4B998B444B22
:10448000D154414B1A88042312B29A1A474B598BC4
:1044900013E01288132112B29B1A3D4A99543A4BE9
:1044A0003B4A19880C2309B2591A8B54364B1A8887
:1044B0003F4B12B219780D239A1A354B4CE01288F3
:1044C0004D2112B29B1A324A99542F4B45211A881A
:1044D000C12312B29A1A2E4BD1542B4B47211A8862
:1044E000C22312B29A1AE8E71288304930E02D4C04
:1044F0002E480021158826682DB2861976185D1B76
:10450000234F4D19F678ED1901312E700A29F1D19A
:1045100038E0128827491BE0128812B29B1A264AFB
:10452000128811B2C943C9170A4019495A54164B87
:104530001988082309B2591A1F4B5B881AB2D24353
:10454000D2171340124A8B541CE01749128832319B
:1045500012B209789B1A0E4A995413E0174B1A7835
:104560000B4B1A70FEF709FA0CE015490D4A0023AF
:104570000C681068064D2018C45C5819013304708B
:10458000082BF5D1F7BDC0461C000020EF04002029
:1045900010000050EE04002084110020A80000202C
:1045A00088110020200000202A110020120D002078
:1045B000CC0C00203E0000202611002073080020B3
:1045C0000C0F002073B50F4C0F4D00900191206827
:1045D0001E211F302E68FFF773FBB142F7D0206811
:1045E00006225043094B69461B681818FFF774FBF5
:1045F00023680133236023681D2B02DD23681E3BE3
:10460000236073BDA0000020A40000202C00002027
:1046100007B5012802D002280BD101E00F2300E0EA
:104620000E236A461370002353709370D370137176
:10463000537100980199FFF7C5FFFEF797F907BD81
:1046400007B506235A43019104490090086869465A
:1046500080181A1CFFF740FB07BDC0462C00002045
:10466000F0B5A44B8FB01A78002A04D1A24B197868
:10467000002900D01A7000260120371C0290341C3B
:104680009E497D180422AB5E0A9318202B5E0AA86F
:104690000B93FDF7BFFF9A4BF11803917431002083
:1046A0000A5E0491002A79DDA200D3185A68DB6BF8
:1046B00008A808920993FDF7ADFF099B089901939B
:1046C000904B0A9A0B981B78059106920790012B44
:1046D0000FD10199C8235B0099420ADD0B1C913B65
:1046E000FF3B652058436421FFF794FA9130FF3077
:1046F0000990854B1B78002B00D08EE00198834BEE
:1047000007993C33421AD0171B78121842409A423C
:1047100007DA059906980A1AD11752184A409A42A0
:1047200003DB7B4B1B5D002B03D12C22AB5E002BEC
:1047300073DC0299602252420CAB0A431A70089A49
:104740000F211512099A0D4012118A43154309AA27
:10475000127808A9DA70039A09787A329970118868
:10476000E0B25D70FF22FE2900D8CAB204991A7126
:104770000A8811B2FF2900DDFF225A71FFF732FBD0
:10478000021C0D990C98531C02D1FFF71BFF01E08E
:10479000FFF756FF5F4B01221A553EE02C202B5E9F
:1047A000002B3ADD5B4B1B5D002B36D0029920229B
:1047B0000CAB0A431A700A9A0F2115120B9A0D407E
:1047C00012118A4315430BAA12780AA9DA70494AD2
:1047D00009781278E0B25D709970002A08D0464AD4
:1047E0001178002904D10E2119710123137001E001
:1047F00000221A710CAD00236B71FFF7F3FA021C53
:1048000069680C98531C02D1FFF7DCFE01E0FFF74A
:1048100017FF404B00221B191A7002980237013013
:104820000134029008360A2F00D029E73A4B5A6823
:104830003A4B5B68511C38D09A4250D05A1C17D062
:10484000402201330CAC1343237000236370A37028
:10485000E370237163710520FFF7C4FA021C6168DD
:104860000C98531C02D1FFF7ADFE01E0FFF7E8FE04
:10487000294A402351685B42481C0CAC0343237017
:10488000043100236370A370E37023714900535A0D
:1048900005206371FFF7A6FA021C501C02D10C9888
:1048A000616817E00C98616817E0591C17D0402226
:1048B00001330CAC1343237000236370A370E370C7
:1048C000237163710520FFF78DFA021C61680C9853
:1048D000531C02D1FFF776FE01E0FFF7B1FE104B4B
:1048E0001A68104B1B689A4201D0FEF73FF80FB0D0
:1048F000F0BDC046ED040020600000205C010020F7
:10490000C8020020F2040020E90300202A11002040
:10491000BC020020E4030020180100200001002058
:10492000A4000020A000002070B5051C0E1C141C63
:10493000502805D1474B01201860FFF76DFB88E038
:10494000402806D1444B00221A73444B01221A70AE
:104950000CE04D280AD1424B26221A7028224A43E5
:10496000404BD218404B1A60FEF700F83B4B1A78C8
:10497000002A6ED0281C41380E286AD8FFF7F2F8BA
:104980000810081F08306969693E47566969670061
:10499000334B01221A70354B1A80334A136053E0AF
:1049A0002F4BFF2C03D126221A70002401E0022293
:1049B0001A7014235E43A41964002D4B0DE0284B9C
:1049C000FF2C03D126221A70002401E002221A7063
:1049D00014235E43234BA4196400E418224B32E0F5
:1049E0001F4BFF2C03D126221A70002401E0022263
:1049F0001A7014235E431F4BA419EEE718491A4B93
:104A00001D4AFF2C08D00220087064000CE01449F5
:104A1000154B1A4AFF2C04D1194800784000C0B247
:104A20000BE0022008708440121907E00C490E4B7D
:104A3000144AFF2C04D11248007808701A6003E071
:104A40000120087014191C60FDF790FF01E000229E
:104A50001A7070BD401500202A110020F6040020B5
:104A6000730800208E1100200C0F00205808002031
:104A7000140F0020080E002026110020200700201F
:104A8000CC0C0020FE0D002008B54D4B1B88302BB0
:104A900000D18FE008D80E2B44D01E2B00D180E02F
:104AA0000A2B00D08AE028E0A02B05D0B02B5BD0E9
:104AB0005F2B00D082E008E0424B1878424B197817
:104AC000424B1A78FFF730FF78E0A023DB05196826
:104AD0003F4A0A408021C9010A431A6019683D4AC9
:104AE0000A408021C9000A431A6019683A4A0A40FC
:104AF0009021C9050A431A6060E0384A0123137007
:104B0000374A23211370374B1E201A1C3232117082
:104B1000191C333114220A7004211977191C3D31F4
:104B2000087014E02D4A012313702D4A19211370C7
:104B30002C4B1A1C323211701A1C33320F21117097
:104B400005221A771A1C3D320A2111701422DA86C6
:104B50003A3303221A70244A4023111DCB77511D8A
:104B60000632CB77D37729E0164B1B78002B25D064
:104B70008023DB0599681D4A0A409A6099681C4A9F
:104B80000A409A6099681B4A0A409A6059688022D4
:104B900012010A435A60C046C046C046C04662B6CB
:104BA0000CE0084B1A78144B002A01D0002204E0D4
:104BB000012202E0034B1A78104B1A7008BDC04660
:104BC0001C0000200C0000500E0000500D00005092
:104BD000FF0FFFFFFFF8FFFFFFFFFF80F004002043
:104BE000F20400202A110020120D0020FFFDFFFF1B
:104BF000FFFBFFFFFFF7FFFF330000203200002024
:104C0000FFFFFFFFFFFFFFFFFFFFFFFFFFFFFF01B2
:104C10004D314830504234343246324B594C455F66
:104C20004731460000480C3C1E14010101010005FB
:104C300000002003E001000000020232322B0101DB
:104C4000280032005E012C011400110732321000DE
:104C500001010400F4012204051E0000020F0F00F0
:104C600002070500D4FE0A140AF60BCE0800E8027B
:104C70008A0226025E0130006414920300002300C1
:104C80001400120E3C0161021E000101010C3C00E7
:104C900028003200010101070A0032000A03F6076A
:104CA0002101FF7F0080140001010400F4012204AF
:104CB00005190000020F0F00020707009CFF141ED9
:104CC0000AF60A9C0C00C2019001FA00A00018002C
:104CD00064140000000032001E00231E3C01C304C7
:104CE0003C0003010114FFFFFFFFFFFF010101076B
:104CF0000A0050000A05FF7F0080FF7F008023002C
:104D000009080706050403020100141312110F0B12
:104D10000C0D0E0A00000001020304050607080935
:104D20000A0B02090013130209FEFDFDFDFDFCFC48
:104D3000FCFCFCFBFBFBFBFBFBFBFBFBFE0000FEB0
:104D4000FDFDFDFDFCFCFCFCFCFBFBFBFBFBFBFBA6
:104D5000FBFBFD0000FEFDFDFDFDFDFCFCFCFCFB86
:104D6000FBFBFBFBFBFBFBFBFB0000FEFDFDFDFD7E
:104D7000FCFCFCFCFCFBFBFBFBFBFBFBFBFBFC0078
:104D800000FEFDFDFDFDFCFCFCFCFCFBFBFBFBFB5E
:104D9000FBFBFBFBFB0000FEFDFDFDFDFCFCFCFC4A
:104DA000FCFBFBFBFBFBFBFBFBFBFB0000FEFDFD41
:104DB000FDFDFCFCFCFCFCFBFBFBFBFBFBFBFBFB3A
:104DC000FB0000FEFDFDFDFDFCFCFCFCFBFBFBFB1A
:104DD000FBFBFBFBFBFBFB0000FEFDFDFDFDFCFC0C
:104DE000FCFCFBFBFBFBFBFBFBFBFBFBFC0000FE03
:104DF000FDFDFDFDFCFCFCFCFBFBFBFBFBFBFBFBF7
:104E0000FBFBFB0000FEFDFDFDFDFCFCFCFCFBFBD9
:104E1000FBFBFBFBFBFBFBFBFC0000FEFDFDFDFDCC
:104E2000FCFCFCFCFBFBFBFBFBFBFBFBFBFBFB00C9
:104E30000000000000000000000000000000000072
:104E40000000000000000000000000000000000062
:104E50000000000000000000000000000000000052
:104E60000000000000000000000000000000000042
:104E70000000002926262525252322232423232359
:104E800023232222211F002A2929292827262524F5
:104E900025252525242424232220002A29292827E2
:104EA000272625262727272625252525231F002ACF
:104EB000282927272725252425252524242323239E
:104EC0002221002A282827272625242425252524B1
:104ED000242323222221002A2828272727252425A6
:104EE000252525242423232322210029282726269B
:104EF0002625242525252424242323232222002A91
:104F00002827262625252525262624252323232351
:104F10002321002928272626262424252526242562
:104F20002423242322210029282726262625242657
:104F3000282626262525252423200029282725253F
:104F4000242324242525242423232322222000284B
:104F5000262524242423232525232222212121211F
:104F60002120000000000000000000000000000000
:104F7000000000000000003232FFFFFFFFFFFFFFD4
:104F8000FFFFFFFFFFFFFFFFFFFFFFFFFFFFFFFF31
:104F9000FFFFFFFFFFFFFFFFFFFFFFFFFFFFFFFF21
:104FA000FFFFFFFFFFFFFFFFFFFFFFFFFFFFFFFF11
:104FB000FFFFFFFFFFFFFFFFFFFFFFFFFFFFFFFF01
:104FC000FFFFFFFFFFFFFFFFFFFFFFFFFFFFFFFFF1
:104FD000FFFFFFFFFFFFFFFFFFFFFFFFFFFFFFFFE1
:104FE000FFFFFFFFFFFFFFFFFFFFFFFFFFFFFFFFD1
:104FF000FFFFFFFFFFFFFFFFFFFFFFFFFFFFFFFFC1
:10500000FFFFFFFFFFFFFFFFFFFFFFFFFFFFFF00AF
:00000001FF
