:10000000000C180000000000E01F0000021748D29A
:1000100093D29275AD0C220219827896E6FF603277
:10002000E4F6EF24E0600C24A0600D247070237FC0
:10003000018002E4FF021F6F121E31121F89121E7F
:10004000D153DCF753E4F753D4F7D2B39000907454
:1000500001F02253B2DF32020047AD07ED25E02464
:1000600068F582E43400F583E07F00FEED25E024AE
:1000700069F582E43400F583E02FFFE43EFE2202BE
:1000800008A6900194EFF0E4900197F0A3F07F01AF
:10009000121E5D900199EEF0A3EFF0E4900194F050
:1000A000900010E0FF900194E0FEC39F4003020324
:1000B000E2900091E0C394F05013EE25E02436F96D
:1000C000D3E7941419E7940040030201609001946F
:1000D000E0FF12004E900197EEF0A3EFF090019434
:1000E000E0FF25E02453F582E43401F583E0FCA32E
:1000F000E04C701FEF25E02445F8E6FC08E6FDEF34
:1001000025E02443F582E43401F583ECF0A3EDF01F
:1001100002018C900194E0FD25E02443F582E43453
:1001200001F583E0FEA3E0FFED25E02445F8E6FCC1
:1001300008E6FD121FA1AC06AD07900197E0C313BE
:10014000FEA3E013FFD3ED9FEC9E404C900194E0A2
:10015000FF25E02445F8E6FC08E6FDEF25E0244312
:10016000F582E43401F583ECF0A3EDF0900194E026
:10017000FF25E02453F582E43401F583E4F0A3F095
:10018000EF25E025E02423F582E43401F58312070E
:100190009D000000000203D9900194E0FF25E024B7
:1001A00045F8E6FC08E6FDA3ECF0A3EDF07894E654
:1001B0001846705DEF25E02455F8E6FE08E6FF12CC
:1001C0001FA1900197E0FCA3E0FDC39FEC9E50416E
:1001D000900194E0FF25E02446F9EF25E02455F84E
:1001E000E6FA08E6FBC397EA1997500DECC313FE35
:1001F000ED132BFFEE3AA38014900197E0C313FE9A
:10020000A3E013FFC3EB9FFFEA9E900195F0A3EFDD
:10021000F0900194E0FF25E02446F9EF25E0245515
:10022000F8E6FE08E6FFD397EE199750030203683D
:10023000E025E02446F8C3EF96FDEE1896FC900109
:1002400097E0FEA3E07802CEC313CE13D8F9FFD314
:10025000ED9FEC9E5003020368900194E0FB24B0F4
:10026000F582E43401F583E07036900194E0FF25D7
:10027000E02453F582E43401F583E4F0A3F0EF25A4
:10028000E025E02423F582E43401F58312079D0084
:1002900000000074B02BF582E43401F5837401F0A2
:1002A000900194E0FF25E02453F582E43401F583C6
:1002B000E475F001120566EF25E025E02423F582C0
:1002C000E43401F583C083C082E0F8A3E0F9A3E041
:1002D000FAA3E0FBC000900194E025E02445F8E695
:1002E000FE08E6FFE4FCFDD000EB2FFFEA3EFEED4A
:1002F00039FDEC38FCD082D083120791900194E054
:1003000025E02453F582E43401F583E0FEA3E0FF09
:10031000D39407EE9400406BAB07AA06E4F9F8907B
:100320000194E025E025E02423F582E43401F583FF
:10033000E0FCA3E0FDA3E0FEA3E0FF12061D900198
:1003400094E0FD25E02455F8A60608A607ED25E073
:100350002453F582E43401F583E4F0A3F0ED25E0C5
:1003600025E02423F582E43401F58312079D000083
:100370000000800F900194E024B0F582E43401F590
:1003800083E4F0900194E0FF24B0F582E43401F5B9
:1003900083E07051EF25E025E02423F582E4340169
:1003A000F583C083C082E0F8A3E0F9A3E0FAA3E0FC
:1003B000FB900195E0FEA3E0FFE4FCFDEB2FFFEADC
:1003C0003EFEED39FDEC38FCD082D08312079190CF
:1003D0000194E025E02453F582E43401F583E475CB
:1003E000F001120566900194E004F0020094D378C5
:1003F00094E6940018E69400400708E61618700189
:10040000167894E618466016900199E0FEA3E0780D
:1004100002CEC313CE13D8F9F0EE900199F0E49018
:100420000194F0900010E0FF900194E0FEC39F4023
:10043000030204B874B02EF582E43401F583E07051
:100440007AEE25E02453F582E43401F583E0FEA33F
:10045000E0FF900199E0FCA3E0FDC3EF9DEE9C401E
:100460005AAB07AA06E4F9F8900194E025E025E0EC
:100470002423F582E43401F583E0FCA3E0FDA3E04E
:10048000FEA3E0FF12061D900194E0FD25E0245537
:10049000F8A60608A607ED25E02453F582E434010A
:1004A000F583E4F0A3F0ED25E025E02423F582E4D4
:1004B0003401F58312079D00000000900194E004D0
:1004C000F002041722BB010689828A83E0225002CF
:1004D000E722BBFE02E32289828A83E49322BB01E6
:1004E0000CE58229F582E5833AF583E0225006E99E
:1004F0002582F8E622BBFE06E92582F8E222E582A3
:1005000029F582E5833AF583E49322EF8DF0A4A8E0
:10051000F0CF8CF0A428CE8DF0A42EFE22BC000BD0
:10052000BE0029EF8DF084FFADF022E4CCF875F029
:1005300008EF2FFFEE33FEEC33FCEE9DEC98400508
:10054000FCEE9DFE0FD5F0E9E4CEFD22EDF8F5F0CE
:10055000EE8420D21CFEADF075F008EF2FFFED33D6
:10056000FD4007985006D5F0F222C398FD0FD5F054
:10057000EA22C5F0F8A3E028F0C5F0F8E58215827C
:1005800070021583E038F022A3F8E0C5F025F0F002
:10059000E582158270021583E0C838F0E822E88F02
:1005A000F0A4CC8BF0A42CFCE98EF0A42CFC8AF0F7
:1005B000EDA42CFCEA8EF0A4CDA8F08BF0A42DCCF9
:1005C0003825F0FDE98FF0A42CCD35F0FCEB8EF052
:1005D000A4FEA9F0EB8FF0A4CFC5F02ECD39FEE438
:1005E0003CFCEAA42DCE35F0FDE43CFC2275F0087D
:1005F000758200EF2FFFEE33FECD33CDCC33CCC56B
:100600008233C5829BED9AEC99E58298400CF58285
:10061000EE9BFEED9AFDEC99FC0FD5F0D6E4CEFBF7
:10062000E4CDFAE4CCF9A88222B800C1B90059BAE5
:10063000002DEC8BF084CFCECDFCE5F0CBF9781813
:10064000EF2FFFEE33FEED33FDEC33FCEB33FB100D
:10065000D703994004EB99FB0FD8E5E4F9FA227827
:1006600018EF2FFFEE33FEED33FDEC33FCC933C939
:1006700010D7059BE99A4007EC9BFCE99AF90FD843
:10068000E0E4C9FAE4CCFB2275F010EF2FFFEE3363
:10069000FEED33FDCC33CCC833C810D7079BEC9AA2
:1006A000E899400AED9BFDEC9AFCE899F80FD5F02B
:1006B000DAE4CDFBE4CCFAE4C8F922EB9FF5F0EAEA
:1006C0009E42F0E99D42F0E89C45F022E8600FEC84
:1006D000C313FCED13FDEE13FEEF13FFD8F122BBA5
:1006E000010789828A830207FE5005E9F80207F2B2
:1006F000BBFE05E9F802080A89828A83020816BB54
:10070000010DE58229F582E5833AF5830207FE5063
:1007100007E92582F80207F2BBFE07E92582F80205
:10072000080AE58229F582E5833AF583020816BBBB
:10073000010789828A830207915005E9F802085C63
:10074000BBFE05E9F802086822BB010DE58229F528
:1007500082E5833AF5830207915007E92582F80282
:10076000085CBBFE07E92582F802086822BB010D80
:10077000E58229F582E5833AF5830208335007E9DB
:100780002582F8020826BBFE07E92582F802083F09
:10079000E58229F582E5833AF58302084CECF0A363
:1007A000EDF0A3EEF0A3EFF022A8828583F0D083D2
:1007B000D0821207B41207B41207B41207B4E4735C
:1007C000E493A3C583C5F0C583C8C582C8F0A3C59B
:1007D00083C5F0C583C8C582C822BB010DE5822947
:1007E000F582E5833AF58302079D5007E92582F8F3
:1007F000020874BBFE07E92582F802088D22E6FC98
:1008000008E6FD08E6FE08E6FF22E0FCA3E0FDA303
:10081000E0FEA3E0FF22E2FC08E2FD08E2FE08E2BF
:10082000FF22E493FC740193FD740293FE7403931E
:10083000FF22E6FB08E6F908E6FA08E6CBF822E034
:10084000F8A3E0F9A3E0FAA3E0FB22E2FB08E2F957
:1008500008E2FA08E2CBF822E493F8740193F97401
:100860000293FA740393FB22ECF608EDF608EEF619
:1008700008EFF622ECF208EDF208EEF208EFF222B1
:10088000D083D082E493F608740193F6087402933F
:10089000F608740393F6740473D083D082E493F261
:1008A00008740193F208740293F208740393F274CB
:1008B0000473C0E0C0F0C083C082C0D075D00830DF
:1008C000FD03020AD220FC0302094578B7E6F5FCD5
:1008D00053A1BFC2FF751001AB12AA13A914851052
:1008E000827583001204D2F511C2FF43F92078BA51
:1008F000761308768820FF1220FA0F78BBE61618C8
:1009000070011678BBE6184670EB30FA03020AD283
:100910008511FC0510AB12AA13A9148510827583EA
:10092000001204D2F511C2FF43F92078BA761308F9
:10093000768820FF1220FA0F78BBE6161870011691
:1009400078BBE6184670EB78BBE6184670BC020A26
:10095000D253A1BFC2FF751000C2FF43F92078BA7D
:10096000761308768820FF1220FA0F78BBE6161857
:1009700070011678BBE6184670EB20FB4085FC1131
:1009800030FA03020AD274962510F8A6110510C297
:10099000FF43F92078BA761308768820FF1220FAF0
:1009A0000F78BBE6161870011678BBE6184670EB98
:1009B00085FC1178BBE6184670C6020AD285FC1089
:1009C0007895A610AB12AA13A914AF1005108F8248
:1009D0007583001204D2F511C2FF43F92078BA766C
:1009E0001308768820FF1220FA0F78BBE6161870DD
:1009F000011678BBE6184670EB20FC03020AA578C6
:100A000095E6FF54F06480706B74002FF582E43437
:100A100000F583E075F003A424ADF582E4341EF5FF
:100A200083E493F9740193FA740293900181C9F0FD
:100A3000A3EAF0A3E9F030FA03020AD2900181E0C0
:100A4000FBA3E475F00112057CA9F0FA1204B9F5D4
:100A5000FCC2FF43F92078BA761308768820FFD6C7
:100A600020FAD378BBE6161870011678BBE6184654
:100A700070EB80C220FA678511FCAB12AA13A9148F
:100A8000AF1005108F827583001204D2F511C2FFDA
:100A900043F92078BA761308768820FFD720FAD455
:100AA00078BBE6161870011678BBE6184670EB8026
:100AB000C37895E6062496F8A6FCC2FF43F9207891
:100AC000BA761308768820FF1220FA0F78BBE61654
:100AD0001870011678BBE6184670EB30FAD3C2FFE7
:100AE00043F92043A14078A27601D0D0D082D083B0
:100AF000D0F0D0E032E4900194F0900010E0FF904C
:100B00000194E0C39F505EE0FB25E025E02423F53F
:100B100082E43401F58312079D00000000EB25E01C
:100B20002443F582E43401F583E4F0A3F0900194CA
:100B3000E0FF25E02453F582E43401F583E4F0A3DB
:100B4000F0900120E0FBA3E0FAA3E0F975F004EFD8
:100B5000A4F58285F0831207CE0000000090019476
:100B6000E004F0809512165BE4900194F090001080
:100B7000E0FF900194E0FEC39F5069EE25E025E080
:100B80002423F582E43401F583C083C082E0FCA312
:100B9000E0FDA3E0FEA3E0FF900120E0FBA3E0FA6C
:100BA000A3E0F9900194E075F004A4F58285F08348
:100BB000120761EF2BFFEE3AFEED39FDEC38FCD069
:100BC00082D083120791900194E025E02453F582AE
:100BD000E43401F583E475F001120566900194E0B8
:100BE00004F08089C3900154E09405900153E0948F
:100BF000005003020B59E4900194F0900010E0FFC4
:100C0000900194E0FEC39F4003020D01EE25E02415
:100C100053F582E43401F583E0FEA3E0FBAA06E489
:100C2000F9F8900194E025E025E02423F582E434EE
:100C300001F583E0FCA3E0FDA3E0FEA3E0FF1206C4
:100C40001D900195120791E47F787E69FDFC90016B
:100C500095E0F8A3E0F9A3E0FAA3E0FBD31206AF16
:100C6000403E900195E0FCA3E0FDA3E0FEA3E0245C
:100C700058FFEE349EFEED34FFFDEC34FFFC900196
:100C800094E0FB25E025E02400F582E43401F583BF
:100C9000120791EB25E02455F876610876A8802E9E
:100CA000900194E0FB25E025E02400F582E4340186
:100CB000F58312079D00000000900195A3A3E0FEBC
:100CC000A3E0FFEB25E02455F8A60608A60790014F
:100CD00094E0FF25E02425F8E4F608F6EF25E0256A
:100CE000E02423F582E43401F58312079D0000001F
:100CF00000900194E025E02453F582E43401F5836B
:100D0000E4F0A3F0900194E004F0020BEF90009760
:100D1000E004F022900194EFF0E4A3F0A312079D09
:100D20000000000090019AE4F0A37464F0A3E4F0E2
:100D3000A37464F0E4A3F0900019E0F5C2787D7626
:100D4000200876109001A17403F0A374BBF0E4F5C1
:100D5000C375BB2775B310F5AAF5BEF5BFF5BC7515
:100D6000BD2175E61890FB05743BF0E490FB09F09B
:100D700090FB0A74F0F090FB0B743CF090FB0CF0CD
:100D800090FB0D7401F0E490019FF0900010E0FFE3
:100D900090019FE0C39F502E900120E0FBA3E0FA5A
:100DA000A3E0F990019FE0FF75F004A4F58285F0BF
:100DB000831207CE0000000074652FF8760A9001B8
:100DC0009FE004F080C57865760A087614E4F5BCE7
:100DD00090019FF090FB0674FFF090FB07F090FBF2
:100DE00008F0E49001A0F0900010E0FF9001A0E076
:100DF000FEC39F50361218DF90FB00E0FCA3E0FD1D
:100E0000A3E0FEA3E0FF900120E0FBA3E0FAA3E053
:100E1000F99001A0E075F004A4F58285F083120733
:100E20003DD2D89001A0E004F080BCE490FB06F035
:100E300090FB07F090FB08F09001A0F0900010E00C
:100E4000FF9001A0E0FEC39F50581218DF900120D0
:100E5000E0FBA3E0FAA3E0F99001A0E075F004A4A0
:100E6000F582E92582F9EA35F0FAC003C002C00133
:100E70001206D390FB00E0F8A3E0F9A3E0FAA3E0A8
:100E8000FBC3EF9BFFEE9AFEED99FDEC98FCD001C1
:100E9000D002D003120723D2D89001A0E004F002C0
:100EA0000E30E4900195F09001A0F0900010E0FF6A
:100EB0009001A0E0C39F505A900120E0FBA3E0FA0C
:100EC000A3E0F99001A0E075F004A4F58285F08319
:100ED0001206F39001A0E0FD25E02415F8A606080F
:100EE000A607ED25E02415F8E6FE08E6FFD39001FD
:100EF000A2E09F9001A1E09E400A9001A0E024653D
:100F0000F8068006900195E004F09001A0E004F05E
:100F10008099900010E0FF900195E0C39F500F90E2
:100F2000019FE004F0E0C394325003020DC822E4B4
:100F3000900194F0900010E0FF900194E0C39F4076
:100F4000030210A9900120E0FBA3E0FAA3E0F990CE
:100F50000194E075F004A4F58285F0831206F3ECA9
:100F60004D4E4F7003021090900194E025E025E073
:100F70002400F582E43401F583E0F8A3E0F9A3E06E
:100F8000FAA3E0FBD31206AF40037F0322900120B7
:100F9000E0FBA3E0FAA3E0F9900194E075F004A46B
:100FA000F58285F0831206F3900194E025E025E0B8
:100FB0002400F582E43401F583E0F8A3E0F9A3E02E
:100FC000FAA3E0FBC3EF9BFFEE9AFEED99FDEC98D0
:100FD000FC900195120791E47FFF7EFFFDFC9001DC
:100FE00095E0F8A3E0F9A3E0FAA3E0FBC31206AF93
:100FF00040037F0322E47F03FEFDFC900195E0F8AF
:10100000A3E0F9A3E0FAA3E0FB120592C004A9054E
:10101000AA06AB07900194E025E0246DF8E6FE08EF
:10102000E6FFE4FCFDD000EB2FFFEA3EFEED39FDCC
:10103000EC38FC78021206C0E0FD25E02445F8A655
:101040000608A607ED25E02445F8E6FE08E6FFEDD4
:1010500025E0246DF8A60608A607ED25E02456F93C
:10106000ED25E02445F8E6FE08E6FFD397EE199754
:10107000401BE025E02456F8C3EF96FFEE1896FEDD
:10108000E025E02425F8A60608A607801F90019415
:10109000E025E02425F8E4F608F68010900194E0BD
:1010A00025E02425F8E4F608F67F0322900194E079
:1010B00004F0020F287F0722E4900198F0A3F0A328
:1010C000F0A3F07815E6FE08E6FF900194EEF0A399
:1010D000EFF0A3EEF0A3EFF0E4FFF9FE900010E0D4
:1010E000FDEEC39D5055EE25E02415F8E6FC08E61C
:1010F000FDC3900195E09D900194E09C5011AF06D6
:10110000EE25E02415F8E6FD08E6CDF0A3EDF0EEBF
:1011100025E02415F8E6FC08E6FDD3900197E09D54
:10112000900196E09C4011A906EE25E02415F8E612
:10113000FD08E6CDF0A3EDF00E80A1900098EFF051
:10114000A3E9F0E4900194F0A3F0FE900010E0FD1C
:10115000EEC39D507AEE25E02415F8E6FC08E6FD86
:10116000D39423EC9400400690019BE004F0D3ED6F
:10117000942DEC94004006900198E004F0D3ED9497
:1011800037EC94004006900199E004F0D3ED9441CF
:10119000EC9400400690019AE004F0900098E06E14
:1011A0006029EE25E02415F8E6FC08E6FDC3900171
:1011B00095E09D900194E09C5011AF06EE25E0244F
:1011C00015F8E6FD08E6CDF0A3EDF00E02113F9014
:1011D000009DEFF090019BE090009FF0900198E05F
:1011E00090009AF0900199E090009BF090019AE0B5
:1011F00090009CF0224101B2FF4101B3084801A3D5
:10120000000102040810204050018400FA00E601A9
:101210002C012C012C012C012C012C4801770102FE
:1012200004081020408041017F00610000000D1182
:10123000FFFFFFFFFFFFFFFFFFFFFFFFFFFF0208B2
:10124000388000000032180C060000280A04020052
:101250000000000000000205FFFF000000AA0000DF
:10126000000000000000006464646464646464005E
:10127000000000000000000000000000000000006E
:10128000000000000000000000000000000000005E
:1012900000000000000000FA00E6012C012C012CE7
:1012A000012C012C012C012C012C012C012C000102
:1012B00002030405060708090A0B0C0D0E0F01FFB7
:1012C000FF0000800000000000000000000000009F
:1012D000000000000000000000000000000000000E
:1012E00000000000000000000000000000000000FE
:1012F00000000000000000000000000000000000EE
:1013000000000000000000000000000000000000DD
:1013100000000000000000000000000000000000CD
:1013200000000000000000000000000000FF007549
:10133000E61875CF1F75C30175BB3875B380900172
:10134000947407F0900194E0FF7021047E00A807D8
:10135000088005C333CE33CED8F9FF90FB0AE0FDF9
:10136000EF5D7008900194E014F080D8900194E053
:10137000FF7401A807088002C333D8FC90FB0AF071
:1013800090FB0B7401F090FB0CF090019512079DFF
:1013900000000000E4900194F0900010E0FF900144
:1013A00094E0FEC39F505274002EF582E43400F5A1
:1013B00083E0FFF4603B1218FC90FB00E0FCA3E02C
:1013C000FDA3E0FEA3E0FF900195E0F8A3E0F9A300
:1013D000E0FAA3E0FBC31206AF501490FB00E0FC60
:1013E000A3E0FDA3E0FEA3E0FF900195120791D2D8
:1013F000D8900194E004F080A0900195E0FCA3E077
:10140000FDA3E0FEA3E0FFE47B02FAF9F8120592E7
:10141000900195120791900195E0FCA3E0FDA3E0F7
:10142000FEA3E0FF78101206C0900020EFF09001BC
:1014300095E0FCA3E0FDA3E0FEA3E0FF7808120620
:10144000C0900021EFF0900195A3A3A3E0900022AB
:10145000F022E4FF12004EE4FCFDC004C005C0060B
:10146000C0077825E6FE08E6FFE47B64FAF9F81287
:101470000592D003D002D001D00012061D90019534
:10148000EEF0A3EFF09001947401F0900010E0FFF3
:10149000900194E0F9C39F505EAF0112004EE4FC4E
:1014A000FDC004C005C006C007900194E025E024FB
:1014B00025F8E6FE08E6FFE47B64FAF9F8120592E7
:1014C000D003D002D001D00012061D900197EEF09B
:1014D000A3EFF0D3900196E09F900195E09E400F1E
:1014E000900197E0FFA3E0900195CFF0A3EFF0907B
:1014F0000194E004F08094E4900194F0900010E0F6
:10150000FF900194E0F9C39F5068AF0112004EE4D0
:10151000FCFDC004C005C006C007900194E025E0B2
:101520002425F8E6FE08E6FFE47B64FAF9F81205E4
:1015300092D003D002D001D00012061D900197EE88
:10154000F0A3EFF0900195E0FCA3E0FDC3EF9DFD5B
:10155000EE9CFC900194E0FB25E02415F8A604081D
:10156000A605EB25E02435F8A60608A607E004F05A
:10157000808A22121A6E1200039000907401F012F9
:101580001E85121BE4121D6C43D40843DC0853E48F
:10159000F7D2B390009E74FFF0121DD443D40343DE
:1015A000E40343B003900090E024FD6031146039FF
:1015B00024FE604E14605514606524077067121C89
:1015C000BE121E85121B93121FD4121D35121DD47C
:1015D0007F0A121E5D7893A60608A6078041121B9B
:1015E00093121FD4121D3580369001ADE004F070C7
:1015F000069001ACE004F012165B9000907406F0C7
:101600008023120F23900090EFF0801912181E9083
:101610000090EFF078A3E678B7F61219FC800690F8
:1016200000907404F09000FBE06029E478A2F6C218
:10163000B3F0900175F0A3F0900176E004F070062D
:10164000900175E004F0900175E07004A3E064502F
:1016500070E6D2B378A2E6600678A3E64408F6D234
:10166000D812000E02159990001AE090019BF0E448
:10167000900199F0900010E0FF900199E0FEC39F67
:101680005024900120E0FBA3E0FAA3E0F975F004F8
:10169000EEA4F58285F0831207CE000000009001D1
:1016A00099E004F080CE75E61875CF1F90FB0674A4
:1016B000FFF090FB07F090FB08F0787D762008762D
:1016C00010900020E0F5C3A3E0F5BBA3E0F5B3E480
:1016D000F5BC900199F090019BE0FF900199E0C367
:1016E0009F506AE4A3F0900010E0FF90019AE0FEA2
:1016F000C39F50501218DF900120E0FBA3E0FAA333
:10170000E0F990019AE075F004A4F582E92582F9E8
:10171000EA35F0FAC002C0011206D390FB00E0F8EF
:10172000A3E0F9A3E0FAA3E02FFFEA3EFEE93DFDC6
:10173000E83CFCD001D002120723D2D890019AE0F5
:1017400004F080A2900199E004F00216CA75E61830
:1017500075CF1F2243F580C2DC0020DCF790FF0329
:10176000E493FFF4FE90FF02E493FDB506048D9A26
:101770008003759A4C90FF05E493FFF4FE90FF04FC
:10178000E493FDB506048D84800375840490000005
:101790007F007E04E4F0A3DFFCDEFA78FFE4F6D8F5
:1017A000FD7581BB0217D9020000021567E493A3FF
:1017B000F8E493A34003F68001F208DFF48029E403
:1017C00093A3F85407240CC8C333C4540F4420C84F
:1017D000834004F456800146F6DFE4800B010204E6
:1017E00008102040809011E9E47E019360BCA3FFC3
:1017F000543F30E509541FFEE493A360010ECF541B
:10180000C025E060A840B8E493A3FAE493A3F8E409
:1018100093A3C8C582C8CAC583CAF0A3C8C582C875
:10182000CAC583CADFE9DEE780BE121446121FC6AE
:10183000BF010A900092E0FF12007680030218D9DF
:101840007F02121E5DD3788EE69F18E69E400280CE
:10185000157887E6FE08E6FFD39400EE9400401367
:10186000EF64014E7005121E0380757888E6161825
:10187000700116900092E09001B2F02410601614EE
:10188000602124F27035121E03E47885F608F6080C
:10189000F608F68050121E037888E6184670467FD8
:1018A00006800C121E037888E6184670387F0412F2
:1018B0001E5D7887A60608A607802AE47887F608C2
:1018C000F69001B2E0FF121B40788606E618700120
:1018D000067F05121E5DD37886E69F18E69E4005BA
:1018E000121D3580009001B3E0FF22E0FF2465F86F
:1018F000E6F5BD747D2FF8E690FB04F074002EF53C
:1019000082E43400F583E0FFEF131313541FFEEF5E
:101910005407901F5293FDEFD3941740037F00228A
:10192000EE14600F14601424027018ED42E1ED42D1
:10193000D98013ED42E2ED42DA800BED42E3ED4255
:10194000DB80037F0022EF4420F5E675C70D000021
:101950000000000043C101E5C130E1FB53C1FD754A
:10196000E618EE14600F14601424027018EDF4529F
:10197000E152D98013EDF452E252DA800BEDF452C9
:10198000E352DB80037F0022E4F5C77F0122C0E041
:10199000C0F0C083C082C0D075D000C000C004C0F9
:1019A00005C006C007C28D758CFD758A869001B58D
:1019B000E004F070069001B4E004F09001B4E0FEA1
:1019C000A3E0FF7C077DD0120511ED4C702590013E
:1019D000ACE0FEA3E0FFD3940AEE9400400890012F
:1019E000AEEEF0A3EFF09001ACE4F0A3F09001B400
:1019F000F0A3F0D007D006D005D004D000D0D0D0CE
:101A000082D083D0F0D0E032E4900194F090019441
:101A1000E0FF25E02435F8E6FC08E6FDEF75F00868
:101A2000A424A9F8A60408A605E0FF25E02425F8CB
:101A3000E6FC08E6FDEF75F008A424ABF8A6040860
:101A4000A605900120E0FBA3E0FAA3E0F990019441
:101A5000E075F004A4F58285F0831206F37808128D
:101A600006C0900194E075F008A424ADF8A606081D
:101A7000A607E004F0E0B4029422438503439101F9
:101A800090FF05E493FFF4FE90FF04E493FDB50698
:101A9000048D8480037584045384F043840790008C
:101AA000F2EDF0A3EFF090FF03E493FFF4FE90FF5C
:101AB00002E493FDB506048D9A8003759A4C90005C
:101AC000F0EDF0A3EFF053E12053D52053802053E5
:101AD000E23C53DD3C53903C53E30353E50353A0F6
:101AE0000353E40753B00722900019E0F5C29000B9
:101AF00018E090FB04F0900020E0F5C3A3E0F5BBF4
:101B0000A3E0F5B3E4F5AA900014E0F5BEA3E0F578
:101B1000BFA3E0F5BCA3E0F5BD75E61890FB057426
:101B20003BF090FB0674FFF090FB07F090FB08F091
:101B3000E490FB09F090FB0A74F0F090FB0B743C0E
:101B4000F090FB0CF090FB0D7401F022E4FE90008D
:101B500010E0FDEFC39D501E900091E06F6017E410
:101B60007885F608F674A32FF582E43401F583E056
:101B7000FE900091EFF0900091E0FF90009EE06FEA
:101B80006014EF14600304700D9000FBE070070414
:101B9000F0EE0478A3F6900091E090009EF0229081
:101BA000009174FFF0A3F0E4A3F07885F608F678CE
:101BB00089F608F608F608F608F608F608F608F6B4
:101BC0007887F608F6FF900010E0FEEFC39E501FE6
:101BD000900120E0FBA3E0FAA3E0F975F004EFA484
:101BE000F58285F0831207CE000000000F80D72217
:101BF000E478A3F608761808F608F6FFEF75F00803
:101C0000A424A7F8760008763CEF75F008A424A970
:101C1000F8E4F608F6EF75F008A424ABF8E4F6084B
:101C2000F6EF75F008A424ADF8E4F608F60FEFB46B
:101C300002CA7512007513007514A3221210AC901D
:101C40000010E0FF900091E0FEC39F5013EE25E0EE
:101C50002436F9C3E7943C19E794004003E0FF22DF
:101C6000900098E0FE25E02416F9D3E7943C19E7AC
:101C70009400400C900091E0FFF4600122AF062236
:101C80007FFF22EF131313541FFEEF54072477F541
:101C900082E43401F583E0FFEE14601214601A242C
:101CA000027021EF42E1EF42D9EF42D18019EF42B9
:101CB000E2EF42DAEF42D2800EEF42E3EF42DBEF97
:101CC00042D380037F00227F012290FFFEE493FF36
:101CD000F4FEA3E493FDB5060A8D8F90002F74AA3D
:101CE000F08009758F2590002F74FFF075C60C9059
:101CF00000F4EDF0A3EFF0E4F5C7F5C175CE427541
:101D0000D606121F33D2AF22E4FEEE75F003A424F0
:101D10005AF582E4341FF583E493FDF4601FEFB5B8
:101D20000516EE75F003A4245BF582E4341FF583F9
:101D3000E493FE740193FF220EEEB407CDE4FEFFA0
:101D400022E47889F608F6788DF608F608F608F6A3
:101D50007887F608F67885F608F6900018E0FF1206
:101D60000D08121323121ADC120AE97F0A121E5DF3
:101D70007893A60608A607227E007FE0E4FDED2505
:101D8000E024F4F582E4341EF583E493F4601EED60
:101D900025E024F5F582E4341EF583E493FCEF2D71
:101DA000F582E43EF583ECF00DEDB410D122900005
:101DB0001FE0FE900092E06F6005EFF0E4A3F0906A
:101DC0000092E0B4FF02E4FEAF06900093E004F05E
:101DD000C39F50037F00229000937404F07F012280
:101DE00043B14053FAF790FFF8E493B4F80B43FA89
:101DF0000443F90243F901800343FA0443F902431F
:101E0000F90153F9BF75FB4053FAFD43A14022E4A9
:101E10007885F608F690009174FFF090009EE0FF40
:101E2000F46013EF14600304700C9000FB7401F075
:101E300078A3E64408F690009E74FFF022E4F5D9FA
:101E4000F5D1F5E1F5D57580FFF5DAF5D2F5E2F5D6
:101E5000DD7590FFF5DBF5D3F5E3F5E575A0FF4300
:101E6000DC0843E40853D4F7229000E0EFB4FF0508
:101E70007F017E0022E5822FF582E43583F583E041
:101E8000FB9001AEE0FCA3E0FDAF037E001204FF77
:101E900022E4900097F09001ACF0A3F09001AEF036
:101EA000A37420F090002A74FFF09001207401F0D8
:101EB000A37400F0A374A0F02200004500004D00C0
:101EC000005500005D00001500001D000025000009
:101ED0002D00009600006500007D000067AFD6531E
:101EE000C7FBE4F5D6C2D953A1EF539AF05391FE44
:101EF0005387FC43870200004391018FD6021FB72E
:101F000000020101020103010401053C060507026C
:101F1000080A09020A020B280C3C0D1E0E01FF01E3
:101F2000E4FD900010E0FFEDC39F501274002DF50A
:101F300082E43400F583E0FF121C770D80E4224335
:101F40008901C28DD2A953B7FD53B8FDE49001B405
:101F5000F0A3F0758CFD758A86D28CD2AF22010277
:101F6000040810204080010521060995020CF10C9F
:101F70000F411411A8041662FF00FFEFB40111C253
:101F800093C2927F0A121E5D7893A60608A60722C6
:101F9000D293D2922243DC0843E40853D4F7D2B35D
:101FA00053B2FDE4F5BA5391DF43A10222D3EF9D72
:101FB000EE9C4007EF9DFFEE9CFE22C3ED9FFFECE1
:101FC0009EFE22D2DFC2DA538E1F438EE0D2D8D2D9
:101FD000D922121C30121DA2EF7002FF227F0122B3
:0C1FE000121F14021ADCFFFFFFFFFFFFBE
:00000001FF
